{
	"data": {
		"bytecode": {
			"linkReferences": {},
			"object": "6080604052600060035560006004553480156200001b57600080fd5b50620000676040518060400160405280600d81526020017f4465706c6f79696e672052505300000000000000000000000000000000000000815250620000ad60201b620018a21760201c565b336000806101000a81548173ffffffffffffffffffffffffffffffffffffffff021916908373ffffffffffffffffffffffffffffffffffffffff16021790555062000241565b6200014d81604051602401620000c49190620001ba565b6040516020818303038152906040527f41304fac000000000000000000000000000000000000000000000000000000007bffffffffffffffffffffffffffffffffffffffffffffffffffffffff19166020820180517bffffffffffffffffffffffffffffffffffffffffffffffffffffffff83818316178352505050506200015060201b60201c565b50565b60008151905060006a636f6e736f6c652e6c6f679050602083016000808483855afa5050505050565b60006200018682620001de565b620001928185620001e9565b9350620001a4818560208601620001fa565b620001af8162000230565b840191505092915050565b60006020820190508181036000830152620001d6818462000179565b905092915050565b600081519050919050565b600082825260208201905092915050565b60005b838110156200021a578082015181840152602081019050620001fd565b838111156200022a576000848401525b50505050565b6000601f19601f8301169050919050565b61369c80620002516000396000f3fe60806040526004361061008a5760003560e01c80638da5cb5b116100595780638da5cb5b1461013c578063b7cfcdca14610167578063c8dd6ce714610183578063e2eb41ff146101c2578063f579f8821461020257610091565b80632db439d7146100965780634311de8f146100bf578063775274a1146100d65780638a1fa029146100ff57610091565b3661009157005b600080fd5b3480156100a257600080fd5b506100bd60048036038101906100b89190612703565b610249565b005b3480156100cb57600080fd5b506100d461077a565b005b3480156100e257600080fd5b506100fd60048036038101906100f89190612662565b610851565b005b34801561010b57600080fd5b5061012660048036038101906101219190612662565b610dc6565b6040516101339190612ee1565b60405180910390f35b34801561014857600080fd5b506101516110f9565b60405161015e9190612be2565b60405180910390f35b610181600480360381019061017c919061268f565b61111d565b005b34801561018f57600080fd5b506101aa60048036038101906101a59190612635565b61150a565b6040516101b993929190612f03565b60405180910390f35b3480156101ce57600080fd5b506101e960048036038101906101e49190612635565b611674565b6040516101f99493929190612cb6565b60405180910390f35b34801561020e57600080fd5b5061022960048036038101906102249190612662565b6116b1565b6040516102409b9a99989796959493929190612bfd565b60405180910390f35b600280600088815260200190815260200160002060070160169054906101000a900460ff1660ff16146102b1576040517f08c379a00000000000000000000000000000000000000000000000000000000081526004016102a890612e81565b60405180910390fd5b60036002600088815260200190815260200160002060070160169054906101000a900460ff1660ff161061031a576040517f08c379a000000000000000000000000000000000000000000000000000000000815260040161031190612e01565b60405180910390fd5b6002600087815260200190815260200160002060000160009054906101000a900473ffffffffffffffffffffffffffffffffffffffff1673ffffffffffffffffffffffffffffffffffffffff163373ffffffffffffffffffffffffffffffffffffffff1614806103eb57506002600087815260200190815260200160002060010160009054906101000a900473ffffffffffffffffffffffffffffffffffffffff1673ffffffffffffffffffffffffffffffffffffffff163373ffffffffffffffffffffffffffffffffffffffff16145b61042a576040517f08c379a000000000000000000000000000000000000000000000000000000000815260040161042190612ec1565b60405180910390fd5b6002600087815260200190815260200160002060000160009054906101000a900473ffffffffffffffffffffffffffffffffffffffff1673ffffffffffffffffffffffffffffffffffffffff163373ffffffffffffffffffffffffffffffffffffffff1614156105b15760006002600088815260200190815260200160002060070160009054906101000a900460ff1660ff16146104fd576040517f08c379a00000000000000000000000000000000000000000000000000000000081526004016104f490612d61565b60405180910390fd5b60026000878152602001908152602001600020600501548486604051602001610527929190612bb6565b604051602081830303815290604052805190602001201461057d576040517f08c379a000000000000000000000000000000000000000000000000000000000815260040161057490612d81565b60405180910390fd5b846002600088815260200190815260200160002060070160006101000a81548160ff021916908360ff1602179055506106ca565b60006002600088815260200190815260200160002060070160019054906101000a900460ff1660ff161461061a576040517f08c379a000000000000000000000000000000000000000000000000000000000815260040161061190612d61565b60405180910390fd5b60026000878152602001908152602001600020600601548486604051602001610644929190612bb6565b604051602081830303815290604052805190602001201461069a576040517f08c379a000000000000000000000000000000000000000000000000000000000815260040161069190612d81565b60405180910390fd5b846002600088815260200190815260200160002060070160016101000a81548160ff021916908360ff1602179055505b60006002600088815260200190815260200160002060070160009054906101000a900460ff1660ff1614158015610728575060006002600088815260200190815260200160002060070160019054906101000a900460ff1660ff1614155b15610772577f42692e7ea128eeade7db883116c3013522593012b8018de4359f11cd7b8026f68661075b8886868661193b565b604051610769929190612d16565b60405180910390a15b505050505050565b60008054906101000a900473ffffffffffffffffffffffffffffffffffffffff1673ffffffffffffffffffffffffffffffffffffffff163373ffffffffffffffffffffffffffffffffffffffff1614610808576040517f08c379a00000000000000000000000000000000000000000000000000000000081526004016107ff90612e21565b60405180910390fd5b3373ffffffffffffffffffffffffffffffffffffffff166108fc479081150290604051600060405180830381858888f1935050505015801561084e573d6000803e3d6000fd5b50565b3373ffffffffffffffffffffffffffffffffffffffff166002600083815260200190815260200160002060000160009054906101000a900473ffffffffffffffffffffffffffffffffffffffff1673ffffffffffffffffffffffffffffffffffffffff16148061092257503373ffffffffffffffffffffffffffffffffffffffff166002600083815260200190815260200160002060010160009054906101000a900473ffffffffffffffffffffffffffffffffffffffff1673ffffffffffffffffffffffffffffffffffffffff16145b610961576040517f08c379a000000000000000000000000000000000000000000000000000000000815260040161095890612ec1565b60405180910390fd5b60016002600083815260200190815260200160002060070160169054906101000a900460ff1660ff1614806109bb5750600280600083815260200190815260200160002060070160169054906101000a900460ff1660ff16145b6109fa576040517f08c379a00000000000000000000000000000000000000000000000000000000081526004016109f190612e01565b60405180910390fd5b6000600260008381526020019081526020016000206004015490507f1bdc3dc79ecf2b2e1e2c50646c0b4f552303c5fd8a889b6b1114e7b0b3a2001482604051610a449190612cfb565b60405180910390a16000811415610a8b5760046002600084815260200190815260200160002060070160166101000a81548160ff021916908360ff16021790555050610dc3565b60016002600084815260200190815260200160002060070160169054906101000a900460ff1660ff161415610bd25760046002600084815260200190815260200160002060070160166101000a81548160ff021916908360ff16021790555060006002600084815260200190815260200160002060000160009054906101000a900473ffffffffffffffffffffffffffffffffffffffff1673ffffffffffffffffffffffffffffffffffffffff1682604051610b4690612ba1565b60006040518083038185875af1925050503d8060008114610b83576040519150601f19603f3d011682016040523d82523d6000602084013e610b88565b606091505b5050905080610bcc576040517f08c379a0000000000000000000000000000000000000000000000000000000008152600401610bc390612ea1565b60405180910390fd5b50610dc1565b600280600084815260200190815260200160002060070160169054906101000a900460ff1660ff161415610dc05760046002600084815260200190815260200160002060070160166101000a81548160ff021916908360ff16021790555060006002600084815260200190815260200160002060000160009054906101000a900473ffffffffffffffffffffffffffffffffffffffff1673ffffffffffffffffffffffffffffffffffffffff1682604051610c8c90612ba1565b60006040518083038185875af1925050503d8060008114610cc9576040519150601f19603f3d011682016040523d82523d6000602084013e610cce565b606091505b5050905060006002600085815260200190815260200160002060010160009054906101000a900473ffffffffffffffffffffffffffffffffffffffff1673ffffffffffffffffffffffffffffffffffffffff1683604051610d2e90612ba1565b60006040518083038185875af1925050503d8060008114610d6b576040519150601f19603f3d011682016040523d82523d6000602084013e610d70565b606091505b50509050818015610d7e5750805b610dbd576040517f08c379a0000000000000000000000000000000000000000000000000000000008152600401610db490612ea1565b60405180910390fd5b50505b5b505b50565b610dce6123b7565b60006002600084815260200190815260200160002060070160169054906101000a900460ff1660ff161415610e38576040517f08c379a0000000000000000000000000000000000000000000000000000000008152600401610e2f90612e41565b60405180910390fd5b60026000838152602001908152602001600020604051806101600160405290816000820160009054906101000a900473ffffffffffffffffffffffffffffffffffffffff1673ffffffffffffffffffffffffffffffffffffffff1673ffffffffffffffffffffffffffffffffffffffff1681526020016001820160009054906101000a900473ffffffffffffffffffffffffffffffffffffffff1673ffffffffffffffffffffffffffffffffffffffff1673ffffffffffffffffffffffffffffffffffffffff168152602001600282018054610f13906131d3565b80601f0160208091040260200160405190810160405280929190818152602001828054610f3f906131d3565b8015610f8c5780601f10610f6157610100808354040283529160200191610f8c565b820191906000526020600020905b815481529060010190602001808311610f6f57829003601f168201915b50505050508152602001600382018054610fa5906131d3565b80601f0160208091040260200160405190810160405280929190818152602001828054610fd1906131d3565b801561101e5780601f10610ff35761010080835404028352916020019161101e565b820191906000526020600020905b81548152906001019060200180831161100157829003601f168201915b505050505081526020016004820154815260200160058201548152602001600682015481526020016007820160009054906101000a900460ff1660ff1660ff1681526020016007820160019054906101000a900460ff1660ff1660ff1681526020016007820160029054906101000a900473ffffffffffffffffffffffffffffffffffffffff1673ffffffffffffffffffffffffffffffffffffffff1673ffffffffffffffffffffffffffffffffffffffff1681526020016007820160169054906101000a900460ff1660ff1660ff16815250509050919050565b60008054906101000a900473ffffffffffffffffffffffffffffffffffffffff1681565b60036002600086815260200190815260200160002060070160169054906101000a900460ff1660ff1610611186576040517f08c379a000000000000000000000000000000000000000000000000000000000815260040161117d90612e01565b60405180910390fd5b600160003373ffffffffffffffffffffffffffffffffffffffff1673ffffffffffffffffffffffffffffffffffffffff16815260200190815260200160002060000160009054906101000a900460ff166111e4576111e33361203f565b5b60016002600086815260200190815260200160002060070160169054906101000a900460ff1660ff16111561124e576040517f08c379a000000000000000000000000000000000000000000000000000000000815260040161124590612de1565b60405180910390fd5b60006002600086815260200190815260200160002060070160169054906101000a900460ff1660ff1614156112da5761128a33838334886120e9565b82600260008681526020019081526020016000206005018190555060016002600086815260200190815260200160002060070160166101000a81548160ff021916908360ff160217905550611504565b60016002600086815260200190815260200160002060070160169054906101000a900460ff1660ff161415611503573373ffffffffffffffffffffffffffffffffffffffff166002600086815260200190815260200160002060000160009054906101000a900473ffffffffffffffffffffffffffffffffffffffff1673ffffffffffffffffffffffffffffffffffffffff1614156113ae576040517f08c379a00000000000000000000000000000000000000000000000000000000081526004016113a590612de1565b60405180910390fd5b34600260008681526020019081526020016000206004015414611406576040517f08c379a00000000000000000000000000000000000000000000000000000000081526004016113fd90612da1565b60405180910390fd5b336002600086815260200190815260200160002060010160006101000a81548173ffffffffffffffffffffffffffffffffffffffff021916908373ffffffffffffffffffffffffffffffffffffffff1602179055508181600260008781526020019081526020016000206003019190611480929190612462565b50826002600086815260200190815260200160002060060181905550600280600086815260200190815260200160002060070160166101000a81548160ff021916908360ff1602179055507f21980cf2ba5a8ad6ee12a16dea09c0470962f989af2ed3ffeed2e31761736ca9846040516114fa9190612cfb565b60405180910390a15b5b50505050565b6000806000600160008573ffffffffffffffffffffffffffffffffffffffff1673ffffffffffffffffffffffffffffffffffffffff16815260200190815260200160002060000160009054906101000a900460ff1661159e576040517f08c379a000000000000000000000000000000000000000000000000000000000815260040161159590612e61565b60405180910390fd5b600160008573ffffffffffffffffffffffffffffffffffffffff1673ffffffffffffffffffffffffffffffffffffffff16815260200190815260200160002060010154600160008673ffffffffffffffffffffffffffffffffffffffff1673ffffffffffffffffffffffffffffffffffffffff16815260200190815260200160002060020154600160008773ffffffffffffffffffffffffffffffffffffffff1673ffffffffffffffffffffffffffffffffffffffff168152602001908152602001600020600301549250925092509193909250565b60016020528060005260406000206000915090508060000160009054906101000a900460ff16908060010154908060020154908060030154905084565b60026020528060005260406000206000915090508060000160009054906101000a900473ffffffffffffffffffffffffffffffffffffffff16908060010160009054906101000a900473ffffffffffffffffffffffffffffffffffffffff1690806002018054611720906131d3565b80601f016020809104026020016040519081016040528092919081815260200182805461174c906131d3565b80156117995780601f1061176e57610100808354040283529160200191611799565b820191906000526020600020905b81548152906001019060200180831161177c57829003601f168201915b5050505050908060030180546117ae906131d3565b80601f01602080910402602001604051908101604052809291908181526020018280546117da906131d3565b80156118275780601f106117fc57610100808354040283529160200191611827565b820191906000526020600020905b81548152906001019060200180831161180a57829003601f168201915b5050505050908060040154908060050154908060060154908060070160009054906101000a900460ff16908060070160019054906101000a900460ff16908060070160029054906101000a900473ffffffffffffffffffffffffffffffffffffffff16908060070160169054906101000a900460ff1690508b565b611938816040516024016118b69190612d3f565b6040516020818303038152906040527f41304fac000000000000000000000000000000000000000000000000000000007bffffffffffffffffffffffffffffffffffffffffffffffffffffffff19166020820180517bffffffffffffffffffffffffffffffffffffffffffffffffffffffff838183161783525050505061238e565b50565b6000600280600087815260200190815260200160002060070160169054906101000a900460ff1660ff16146119735761197261326a565b5b60008060006002600089815260200190815260200160002060000160009054906101000a900473ffffffffffffffffffffffffffffffffffffffff1690506000600260008a815260200190815260200160002060010160009054906101000a900473ffffffffffffffffffffffffffffffffffffffff1690506000600260008b815260200190815260200160002060070160009054906101000a900460ff1690506000600260008c815260200190815260200160002060070160019054906101000a900460ff169050600160ff168260ff16148015611a585750600260ff168160ff16145b15611a6857829550839450611b52565b600160ff168160ff16148015611a845750600260ff168260ff16145b15611a9457839550829450611b51565b600360ff168260ff16148015611ab05750600260ff168160ff16145b15611ac057839550829450611b50565b600360ff168160ff16148015611adc5750600260ff168260ff16145b15611aec57829550839450611b4f565b600160ff168260ff16148015611b085750600360ff168160ff16145b15611b1857839550829450611b4e565b600160ff168160ff16148015611b345750600360ff168260ff16145b15611b4457829550839450611b4d565b60009550600094505b5b5b5b5b5b6003600260008d815260200190815260200160002060070160166101000a81548160ff021916908360ff16021790555085600260008d815260200190815260200160002060070160026101000a81548173ffffffffffffffffffffffffffffffffffffffff021916908373ffffffffffffffffffffffffffffffffffffffff1602179055506000600260008d8152602001908152602001600020600401549050600073ffffffffffffffffffffffffffffffffffffffff168773ffffffffffffffffffffffffffffffffffffffff161415611d585760008114611d535760008573ffffffffffffffffffffffffffffffffffffffff1682604051611c5590612ba1565b60006040518083038185875af1925050503d8060008114611c92576040519150601f19603f3d011682016040523d82523d6000602084013e611c97565b606091505b5050905060008573ffffffffffffffffffffffffffffffffffffffff1683604051611cc190612ba1565b60006040518083038185875af1925050503d8060008114611cfe576040519150601f19603f3d011682016040523d82523d6000602084013e611d03565b606091505b50509050818015611d115750805b611d50576040517f08c379a0000000000000000000000000000000000000000000000000000000008152600401611d4790612dc1565b60405180910390fd5b50505b61202d565b60008114611eca5760008773ffffffffffffffffffffffffffffffffffffffff1660648c846002611d899190613037565b611d939190613037565b611d9d9190613006565b604051611da990612ba1565b60006040518083038185875af1925050503d8060008114611de6576040519150601f19603f3d011682016040523d82523d6000602084013e611deb565b606091505b5050905060008c73ffffffffffffffffffffffffffffffffffffffff1660648c856002611e189190613037565b611e229190613037565b611e2c9190613006565b604051611e3890612ba1565b60006040518083038185875af1925050503d8060008114611e75576040519150601f19603f3d011682016040523d82523d6000602084013e611e7a565b606091505b50509050818015611e885750805b611ec7576040517f08c379a0000000000000000000000000000000000000000000000000000000008152600401611ebe90612dc1565b60405180910390fd5b50505b80600160008973ffffffffffffffffffffffffffffffffffffffff1673ffffffffffffffffffffffffffffffffffffffff1681526020019081526020016000206003016000828254611f1c9190612f72565b92505081905550600160008873ffffffffffffffffffffffffffffffffffffffff1673ffffffffffffffffffffffffffffffffffffffff1681526020019081526020016000206001016000815480929190611f7690613205565b919050555080600160008873ffffffffffffffffffffffffffffffffffffffff1673ffffffffffffffffffffffffffffffffffffffff1681526020019081526020016000206003016000828254611fcd9190613091565b92505081905550600160008773ffffffffffffffffffffffffffffffffffffffff1673ffffffffffffffffffffffffffffffffffffffff168152602001908152602001600020600201600081548092919061202790613205565b91905055505b86975050505050505050949350505050565b604051806080016040528060011515815260200160008152602001600081526020016000815250600160008373ffffffffffffffffffffffffffffffffffffffff1673ffffffffffffffffffffffffffffffffffffffff16815260200190815260200160002060008201518160000160006101000a81548160ff02191690831515021790555060208201518160010155604082015181600201556060820151816003015590505050565b6040518061016001604052808673ffffffffffffffffffffffffffffffffffffffff168152602001600073ffffffffffffffffffffffffffffffffffffffff16815260200185858080601f016020809104026020016040519081016040528093929190818152602001838380828437600081840152601f19601f8201169050808301925050505050505081526020016040518060200160405280600081525081526020018381526020016000801b81526020016000801b8152602001600060ff168152602001600060ff168152602001600073ffffffffffffffffffffffffffffffffffffffff168152602001600060ff168152506002600083815260200190815260200160002060008201518160000160006101000a81548173ffffffffffffffffffffffffffffffffffffffff021916908373ffffffffffffffffffffffffffffffffffffffff16021790555060208201518160010160006101000a81548173ffffffffffffffffffffffffffffffffffffffff021916908373ffffffffffffffffffffffffffffffffffffffff160217905550604082015181600201908051906020019061229b9291906124e8565b5060608201518160030190805190602001906122b89291906124e8565b506080820151816004015560a0820151816005015560c0820151816006015560e08201518160070160006101000a81548160ff021916908360ff1602179055506101008201518160070160016101000a81548160ff021916908360ff1602179055506101208201518160070160026101000a81548173ffffffffffffffffffffffffffffffffffffffff021916908373ffffffffffffffffffffffffffffffffffffffff1602179055506101408201518160070160166101000a81548160ff021916908360ff1602179055509050505050505050565b60008151905060006a636f6e736f6c652e6c6f679050602083016000808483855afa5050505050565b604051806101600160405280600073ffffffffffffffffffffffffffffffffffffffff168152602001600073ffffffffffffffffffffffffffffffffffffffff1681526020016060815260200160608152602001600081526020016000801916815260200160008019168152602001600060ff168152602001600060ff168152602001600073ffffffffffffffffffffffffffffffffffffffff168152602001600060ff1681525090565b82805461246e906131d3565b90600052602060002090601f01602090048101928261249057600085556124d7565b82601f106124a957803560ff19168380011785556124d7565b828001600101855582156124d7579182015b828111156124d65782358255916020019190600101906124bb565b5b5090506124e4919061256e565b5090565b8280546124f4906131d3565b90600052602060002090601f016020900481019282612516576000855561255d565b82601f1061252f57805160ff191683800117855561255d565b8280016001018555821561255d579182015b8281111561255c578251825591602001919060010190612541565b5b50905061256a919061256e565b5090565b5b8082111561258757600081600090555060010161256f565b5090565b60008135905061259a8161360a565b92915050565b6000813590506125af81613621565b92915050565b60008083601f8401126125cb576125ca61332b565b5b8235905067ffffffffffffffff8111156125e8576125e7613326565b5b60208301915083600182028301111561260457612603613330565b5b9250929050565b60008135905061261a81613638565b92915050565b60008135905061262f8161364f565b92915050565b60006020828403121561264b5761264a61333a565b5b60006126598482850161258b565b91505092915050565b6000602082840312156126785761267761333a565b5b6000612686848285016125a0565b91505092915050565b600080600080606085870312156126a9576126a861333a565b5b60006126b7878288016125a0565b94505060206126c8878288016125a0565b935050604085013567ffffffffffffffff8111156126e9576126e8613335565b5b6126f5878288016125b5565b925092505092959194509250565b60008060008060008060c087890312156127205761271f61333a565b5b600061272e89828a016125a0565b965050602061273f89828a01612620565b955050604061275089828a0161260b565b945050606061276189828a0161258b565b935050608061277289828a0161260b565b92505060a061278389828a0161260b565b9150509295509295509295565b61279981613137565b82525050565b6127a881613137565b82525050565b6127b781613125565b82525050565b6127c681613125565b82525050565b6127d581613149565b82525050565b6127e481613155565b82525050565b6127f381613155565b82525050565b6128028161315f565b82525050565b600061281382612f3a565b61281d8185612f50565b935061282d8185602086016131a0565b6128368161333f565b840191505092915050565b600061284c82612f3a565b6128568185612f61565b93506128668185602086016131a0565b61286f8161333f565b840191505092915050565b6000612887602583612f61565b91506128928261335d565b604082019050919050565b60006128aa602983612f61565b91506128b5826133ac565b604082019050919050565b60006128cd603083612f61565b91506128d8826133fb565b604082019050919050565b60006128f0601483612f61565b91506128fb8261344a565b602082019050919050565b6000612913601a83612f61565b915061291e82613473565b602082019050919050565b6000612936601c83612f61565b91506129418261349c565b602082019050919050565b6000612959602583612f61565b9150612964826134c5565b604082019050919050565b600061297c601083612f61565b915061298782613514565b602082019050919050565b600061299f601583612f61565b91506129aa8261353d565b602082019050919050565b60006129c2601e83612f61565b91506129cd82613566565b602082019050919050565b60006129e5601683612f61565b91506129f08261358f565b602082019050919050565b6000612a08600083612f45565b9150612a13826135b8565b600082019050919050565b6000612a2b602183612f61565b9150612a36826135bb565b604082019050919050565b600061016083016000830151612a5a6000860182612790565b506020830151612a6d6020860182612790565b5060408301518482036040860152612a858282612808565b91505060608301518482036060860152612a9f8282612808565b9150506080830151612ab46080860182612b37565b5060a0830151612ac760a08601826127db565b5060c0830151612ada60c08601826127db565b5060e0830151612aed60e0860182612b6c565b50610100830151612b02610100860182612b6c565b50610120830151612b176101208601826127ae565b50610140830151612b2c610140860182612b6c565b508091505092915050565b612b4081613189565b82525050565b612b4f81613189565b82525050565b612b66612b6182613189565b61324e565b82525050565b612b7581613193565b82525050565b612b8481613193565b82525050565b612b9b612b9682613193565b613258565b82525050565b6000612bac826129fb565b9150819050919050565b6000612bc28285612b55565b602082019150612bd28284612b8a565b6001820191508190509392505050565b6000602082019050612bf7600083018461279f565b92915050565b600061016082019050612c13600083018e61279f565b612c20602083018d61279f565b8181036040830152612c32818c612841565b90508181036060830152612c46818b612841565b9050612c55608083018a612b46565b612c6260a08301896127ea565b612c6f60c08301886127ea565b612c7c60e0830187612b7b565b612c8a610100830186612b7b565b612c986101208301856127bd565b612ca6610140830184612b7b565b9c9b505050505050505050505050565b6000608082019050612ccb60008301876127cc565b612cd86020830186612b46565b612ce56040830185612b46565b612cf260608301846127f9565b95945050505050565b6000602082019050612d1060008301846127ea565b92915050565b6000604082019050612d2b60008301856127ea565b612d3860208301846127bd565b9392505050565b60006020820190508181036000830152612d598184612841565b905092915050565b60006020820190508181036000830152612d7a8161287a565b9050919050565b60006020820190508181036000830152612d9a8161289d565b9050919050565b60006020820190508181036000830152612dba816128c0565b9050919050565b60006020820190508181036000830152612dda816128e3565b9050919050565b60006020820190508181036000830152612dfa81612906565b9050919050565b60006020820190508181036000830152612e1a81612929565b9050919050565b60006020820190508181036000830152612e3a8161294c565b9050919050565b60006020820190508181036000830152612e5a8161296f565b9050919050565b60006020820190508181036000830152612e7a81612992565b9050919050565b60006020820190508181036000830152612e9a816129b5565b9050919050565b60006020820190508181036000830152612eba816129d8565b9050919050565b60006020820190508181036000830152612eda81612a1e565b9050919050565b60006020820190508181036000830152612efb8184612a41565b905092915050565b6000606082019050612f186000830186612b46565b612f256020830185612b46565b612f3260408301846127f9565b949350505050565b600081519050919050565b600081905092915050565b600082825260208201905092915050565b600082825260208201905092915050565b6000612f7d8261315f565b9150612f888361315f565b9250817f7fffffffffffffffffffffffffffffffffffffffffffffffffffffffffffffff03831360008312151615612fc357612fc2613299565b5b817f8000000000000000000000000000000000000000000000000000000000000000038312600083121615612ffb57612ffa613299565b5b828201905092915050565b600061301182613189565b915061301c83613189565b92508261302c5761302b6132c8565b5b828204905092915050565b600061304282613189565b915061304d83613189565b9250817fffffffffffffffffffffffffffffffffffffffffffffffffffffffffffffffff048311821515161561308657613085613299565b5b828202905092915050565b600061309c8261315f565b91506130a78361315f565b9250827f8000000000000000000000000000000000000000000000000000000000000000018212600084121516156130e2576130e1613299565b5b827f7fffffffffffffffffffffffffffffffffffffffffffffffffffffffffffffff01821360008412161561311a57613119613299565b5b828203905092915050565b600061313082613169565b9050919050565b600061314282613169565b9050919050565b60008115159050919050565b6000819050919050565b6000819050919050565b600073ffffffffffffffffffffffffffffffffffffffff82169050919050565b6000819050919050565b600060ff82169050919050565b60005b838110156131be5780820151818401526020810190506131a3565b838111156131cd576000848401525b50505050565b600060028204905060018216806131eb57607f821691505b602082108114156131ff576131fe6132f7565b5b50919050565b600061321082613189565b91507fffffffffffffffffffffffffffffffffffffffffffffffffffffffffffffffff82141561324357613242613299565b5b600182019050919050565b6000819050919050565b600061326382613350565b9050919050565b7f4e487b7100000000000000000000000000000000000000000000000000000000600052600160045260246000fd5b7f4e487b7100000000000000000000000000000000000000000000000000000000600052601160045260246000fd5b7f4e487b7100000000000000000000000000000000000000000000000000000000600052601260045260246000fd5b7f4e487b7100000000000000000000000000000000000000000000000000000000600052602260045260246000fd5b600080fd5b600080fd5b600080fd5b600080fd5b600080fd5b6000601f19601f8301169050919050565b60008160f81b9050919050565b7f596f75206861766520616c726561647920766572696669656420796f7572206360008201527f686f696365000000000000000000000000000000000000000000000000000000602082015250565b7f596f75722063686f69636520646f6573206e6f74206d6174636820746865206360008201527f6f6d6d69746d656e740000000000000000000000000000000000000000000000602082015250565b7f596f75206d75737420626574207468652073616d6520616d6f756e742061732060008201527f746865206f7468657220706c6179657200000000000000000000000000000000602082015250565b7f4661696c656420746f2073656e64204574686572000000000000000000000000600082015250565b7f596f75206861766520616c726561647920636f6d6d6974746564000000000000600082015250565b7f5468652067616d6520697320616c72656164792066696e697368656400000000600082015250565b7f4f6e6c7920746865206f776e65722063616e206163636573732074686973206160008201527f6374696f6e000000000000000000000000000000000000000000000000000000602082015250565b7f47616d65206e6f74207374617274656400000000000000000000000000000000600082015250565b7f506c6179657220646f6573206e6f742065786973740000000000000000000000600082015250565b7f426f746820706c6179657273206d75737420636f6d6d69742066697273740000600082015250565b7f4661696c656420746f20726566756e6420457468657200000000000000000000600082015250565b50565b7f596f7520617265206e6f74206120706c6179657220696e20746869732067616d60008201527f6500000000000000000000000000000000000000000000000000000000000000602082015250565b61361381613125565b811461361e57600080fd5b50565b61362a81613155565b811461363557600080fd5b50565b61364181613189565b811461364c57600080fd5b50565b61365881613193565b811461366357600080fd5b5056fea26469706673582212201f45d3b409d66c873cb60ef04518fb6e602445ec3983b60e25356be8fd0415d164736f6c63430008070033",
			"opcodes": "PUSH1 0x80 PUSH1 0x40 MSTORE PUSH1 0x0 PUSH1 0x3 SSTORE PUSH1 0x0 PUSH1 0x4 SSTORE CALLVALUE DUP1 ISZERO PUSH3 0x1B JUMPI PUSH1 0x0 DUP1 REVERT JUMPDEST POP PUSH3 0x67 PUSH1 0x40 MLOAD DUP1 PUSH1 0x40 ADD PUSH1 0x40 MSTORE DUP1 PUSH1 0xD DUP2 MSTORE PUSH1 0x20 ADD PUSH32 0x4465706C6F79696E672052505300000000000000000000000000000000000000 DUP2 MSTORE POP PUSH3 0xAD PUSH1 0x20 SHL PUSH3 0x18A2 OR PUSH1 0x20 SHR JUMP JUMPDEST CALLER PUSH1 0x0 DUP1 PUSH2 0x100 EXP DUP2 SLOAD DUP2 PUSH20 0xFFFFFFFFFFFFFFFFFFFFFFFFFFFFFFFFFFFFFFFF MUL NOT AND SWAP1 DUP4 PUSH20 0xFFFFFFFFFFFFFFFFFFFFFFFFFFFFFFFFFFFFFFFF AND MUL OR SWAP1 SSTORE POP PUSH3 0x241 JUMP JUMPDEST PUSH3 0x14D DUP2 PUSH1 0x40 MLOAD PUSH1 0x24 ADD PUSH3 0xC4 SWAP2 SWAP1 PUSH3 0x1BA JUMP JUMPDEST PUSH1 0x40 MLOAD PUSH1 0x20 DUP2 DUP4 SUB SUB DUP2 MSTORE SWAP1 PUSH1 0x40 MSTORE PUSH32 0x41304FAC00000000000000000000000000000000000000000000000000000000 PUSH28 0xFFFFFFFFFFFFFFFFFFFFFFFFFFFFFFFFFFFFFFFFFFFFFFFFFFFFFFFF NOT AND PUSH1 0x20 DUP3 ADD DUP1 MLOAD PUSH28 0xFFFFFFFFFFFFFFFFFFFFFFFFFFFFFFFFFFFFFFFFFFFFFFFFFFFFFFFF DUP4 DUP2 DUP4 AND OR DUP4 MSTORE POP POP POP POP PUSH3 0x150 PUSH1 0x20 SHL PUSH1 0x20 SHR JUMP JUMPDEST POP JUMP JUMPDEST PUSH1 0x0 DUP2 MLOAD SWAP1 POP PUSH1 0x0 PUSH11 0x636F6E736F6C652E6C6F67 SWAP1 POP PUSH1 0x20 DUP4 ADD PUSH1 0x0 DUP1 DUP5 DUP4 DUP6 GAS STATICCALL POP POP POP POP POP JUMP JUMPDEST PUSH1 0x0 PUSH3 0x186 DUP3 PUSH3 0x1DE JUMP JUMPDEST PUSH3 0x192 DUP2 DUP6 PUSH3 0x1E9 JUMP JUMPDEST SWAP4 POP PUSH3 0x1A4 DUP2 DUP6 PUSH1 0x20 DUP7 ADD PUSH3 0x1FA JUMP JUMPDEST PUSH3 0x1AF DUP2 PUSH3 0x230 JUMP JUMPDEST DUP5 ADD SWAP2 POP POP SWAP3 SWAP2 POP POP JUMP JUMPDEST PUSH1 0x0 PUSH1 0x20 DUP3 ADD SWAP1 POP DUP2 DUP2 SUB PUSH1 0x0 DUP4 ADD MSTORE PUSH3 0x1D6 DUP2 DUP5 PUSH3 0x179 JUMP JUMPDEST SWAP1 POP SWAP3 SWAP2 POP POP JUMP JUMPDEST PUSH1 0x0 DUP2 MLOAD SWAP1 POP SWAP2 SWAP1 POP JUMP JUMPDEST PUSH1 0x0 DUP3 DUP3 MSTORE PUSH1 0x20 DUP3 ADD SWAP1 POP SWAP3 SWAP2 POP POP JUMP JUMPDEST PUSH1 0x0 JUMPDEST DUP4 DUP2 LT ISZERO PUSH3 0x21A JUMPI DUP1 DUP3 ADD MLOAD DUP2 DUP5 ADD MSTORE PUSH1 0x20 DUP2 ADD SWAP1 POP PUSH3 0x1FD JUMP JUMPDEST DUP4 DUP2 GT ISZERO PUSH3 0x22A JUMPI PUSH1 0x0 DUP5 DUP5 ADD MSTORE JUMPDEST POP POP POP POP JUMP JUMPDEST PUSH1 0x0 PUSH1 0x1F NOT PUSH1 0x1F DUP4 ADD AND SWAP1 POP SWAP2 SWAP1 POP JUMP JUMPDEST PUSH2 0x369C DUP1 PUSH3 0x251 PUSH1 0x0 CODECOPY PUSH1 0x0 RETURN INVALID PUSH1 0x80 PUSH1 0x40 MSTORE PUSH1 0x4 CALLDATASIZE LT PUSH2 0x8A JUMPI PUSH1 0x0 CALLDATALOAD PUSH1 0xE0 SHR DUP1 PUSH4 0x8DA5CB5B GT PUSH2 0x59 JUMPI DUP1 PUSH4 0x8DA5CB5B EQ PUSH2 0x13C JUMPI DUP1 PUSH4 0xB7CFCDCA EQ PUSH2 0x167 JUMPI DUP1 PUSH4 0xC8DD6CE7 EQ PUSH2 0x183 JUMPI DUP1 PUSH4 0xE2EB41FF EQ PUSH2 0x1C2 JUMPI DUP1 PUSH4 0xF579F882 EQ PUSH2 0x202 JUMPI PUSH2 0x91 JUMP JUMPDEST DUP1 PUSH4 0x2DB439D7 EQ PUSH2 0x96 JUMPI DUP1 PUSH4 0x4311DE8F EQ PUSH2 0xBF JUMPI DUP1 PUSH4 0x775274A1 EQ PUSH2 0xD6 JUMPI DUP1 PUSH4 0x8A1FA029 EQ PUSH2 0xFF JUMPI PUSH2 0x91 JUMP JUMPDEST CALLDATASIZE PUSH2 0x91 JUMPI STOP JUMPDEST PUSH1 0x0 DUP1 REVERT JUMPDEST CALLVALUE DUP1 ISZERO PUSH2 0xA2 JUMPI PUSH1 0x0 DUP1 REVERT JUMPDEST POP PUSH2 0xBD PUSH1 0x4 DUP1 CALLDATASIZE SUB DUP2 ADD SWAP1 PUSH2 0xB8 SWAP2 SWAP1 PUSH2 0x2703 JUMP JUMPDEST PUSH2 0x249 JUMP JUMPDEST STOP JUMPDEST CALLVALUE DUP1 ISZERO PUSH2 0xCB JUMPI PUSH1 0x0 DUP1 REVERT JUMPDEST POP PUSH2 0xD4 PUSH2 0x77A JUMP JUMPDEST STOP JUMPDEST CALLVALUE DUP1 ISZERO PUSH2 0xE2 JUMPI PUSH1 0x0 DUP1 REVERT JUMPDEST POP PUSH2 0xFD PUSH1 0x4 DUP1 CALLDATASIZE SUB DUP2 ADD SWAP1 PUSH2 0xF8 SWAP2 SWAP1 PUSH2 0x2662 JUMP JUMPDEST PUSH2 0x851 JUMP JUMPDEST STOP JUMPDEST CALLVALUE DUP1 ISZERO PUSH2 0x10B JUMPI PUSH1 0x0 DUP1 REVERT JUMPDEST POP PUSH2 0x126 PUSH1 0x4 DUP1 CALLDATASIZE SUB DUP2 ADD SWAP1 PUSH2 0x121 SWAP2 SWAP1 PUSH2 0x2662 JUMP JUMPDEST PUSH2 0xDC6 JUMP JUMPDEST PUSH1 0x40 MLOAD PUSH2 0x133 SWAP2 SWAP1 PUSH2 0x2EE1 JUMP JUMPDEST PUSH1 0x40 MLOAD DUP1 SWAP2 SUB SWAP1 RETURN JUMPDEST CALLVALUE DUP1 ISZERO PUSH2 0x148 JUMPI PUSH1 0x0 DUP1 REVERT JUMPDEST POP PUSH2 0x151 PUSH2 0x10F9 JUMP JUMPDEST PUSH1 0x40 MLOAD PUSH2 0x15E SWAP2 SWAP1 PUSH2 0x2BE2 JUMP JUMPDEST PUSH1 0x40 MLOAD DUP1 SWAP2 SUB SWAP1 RETURN JUMPDEST PUSH2 0x181 PUSH1 0x4 DUP1 CALLDATASIZE SUB DUP2 ADD SWAP1 PUSH2 0x17C SWAP2 SWAP1 PUSH2 0x268F JUMP JUMPDEST PUSH2 0x111D JUMP JUMPDEST STOP JUMPDEST CALLVALUE DUP1 ISZERO PUSH2 0x18F JUMPI PUSH1 0x0 DUP1 REVERT JUMPDEST POP PUSH2 0x1AA PUSH1 0x4 DUP1 CALLDATASIZE SUB DUP2 ADD SWAP1 PUSH2 0x1A5 SWAP2 SWAP1 PUSH2 0x2635 JUMP JUMPDEST PUSH2 0x150A JUMP JUMPDEST PUSH1 0x40 MLOAD PUSH2 0x1B9 SWAP4 SWAP3 SWAP2 SWAP1 PUSH2 0x2F03 JUMP JUMPDEST PUSH1 0x40 MLOAD DUP1 SWAP2 SUB SWAP1 RETURN JUMPDEST CALLVALUE DUP1 ISZERO PUSH2 0x1CE JUMPI PUSH1 0x0 DUP1 REVERT JUMPDEST POP PUSH2 0x1E9 PUSH1 0x4 DUP1 CALLDATASIZE SUB DUP2 ADD SWAP1 PUSH2 0x1E4 SWAP2 SWAP1 PUSH2 0x2635 JUMP JUMPDEST PUSH2 0x1674 JUMP JUMPDEST PUSH1 0x40 MLOAD PUSH2 0x1F9 SWAP5 SWAP4 SWAP3 SWAP2 SWAP1 PUSH2 0x2CB6 JUMP JUMPDEST PUSH1 0x40 MLOAD DUP1 SWAP2 SUB SWAP1 RETURN JUMPDEST CALLVALUE DUP1 ISZERO PUSH2 0x20E JUMPI PUSH1 0x0 DUP1 REVERT JUMPDEST POP PUSH2 0x229 PUSH1 0x4 DUP1 CALLDATASIZE SUB DUP2 ADD SWAP1 PUSH2 0x224 SWAP2 SWAP1 PUSH2 0x2662 JUMP JUMPDEST PUSH2 0x16B1 JUMP JUMPDEST PUSH1 0x40 MLOAD PUSH2 0x240 SWAP12 SWAP11 SWAP10 SWAP9 SWAP8 SWAP7 SWAP6 SWAP5 SWAP4 SWAP3 SWAP2 SWAP1 PUSH2 0x2BFD JUMP JUMPDEST PUSH1 0x40 MLOAD DUP1 SWAP2 SUB SWAP1 RETURN JUMPDEST PUSH1 0x2 DUP1 PUSH1 0x0 DUP9 DUP2 MSTORE PUSH1 0x20 ADD SWAP1 DUP2 MSTORE PUSH1 0x20 ADD PUSH1 0x0 KECCAK256 PUSH1 0x7 ADD PUSH1 0x16 SWAP1 SLOAD SWAP1 PUSH2 0x100 EXP SWAP1 DIV PUSH1 0xFF AND PUSH1 0xFF AND EQ PUSH2 0x2B1 JUMPI PUSH1 0x40 MLOAD PUSH32 0x8C379A000000000000000000000000000000000000000000000000000000000 DUP2 MSTORE PUSH1 0x4 ADD PUSH2 0x2A8 SWAP1 PUSH2 0x2E81 JUMP JUMPDEST PUSH1 0x40 MLOAD DUP1 SWAP2 SUB SWAP1 REVERT JUMPDEST PUSH1 0x3 PUSH1 0x2 PUSH1 0x0 DUP9 DUP2 MSTORE PUSH1 0x20 ADD SWAP1 DUP2 MSTORE PUSH1 0x20 ADD PUSH1 0x0 KECCAK256 PUSH1 0x7 ADD PUSH1 0x16 SWAP1 SLOAD SWAP1 PUSH2 0x100 EXP SWAP1 DIV PUSH1 0xFF AND PUSH1 0xFF AND LT PUSH2 0x31A JUMPI PUSH1 0x40 MLOAD PUSH32 0x8C379A000000000000000000000000000000000000000000000000000000000 DUP2 MSTORE PUSH1 0x4 ADD PUSH2 0x311 SWAP1 PUSH2 0x2E01 JUMP JUMPDEST PUSH1 0x40 MLOAD DUP1 SWAP2 SUB SWAP1 REVERT JUMPDEST PUSH1 0x2 PUSH1 0x0 DUP8 DUP2 MSTORE PUSH1 0x20 ADD SWAP1 DUP2 MSTORE PUSH1 0x20 ADD PUSH1 0x0 KECCAK256 PUSH1 0x0 ADD PUSH1 0x0 SWAP1 SLOAD SWAP1 PUSH2 0x100 EXP SWAP1 DIV PUSH20 0xFFFFFFFFFFFFFFFFFFFFFFFFFFFFFFFFFFFFFFFF AND PUSH20 0xFFFFFFFFFFFFFFFFFFFFFFFFFFFFFFFFFFFFFFFF AND CALLER PUSH20 0xFFFFFFFFFFFFFFFFFFFFFFFFFFFFFFFFFFFFFFFF AND EQ DUP1 PUSH2 0x3EB JUMPI POP PUSH1 0x2 PUSH1 0x0 DUP8 DUP2 MSTORE PUSH1 0x20 ADD SWAP1 DUP2 MSTORE PUSH1 0x20 ADD PUSH1 0x0 KECCAK256 PUSH1 0x1 ADD PUSH1 0x0 SWAP1 SLOAD SWAP1 PUSH2 0x100 EXP SWAP1 DIV PUSH20 0xFFFFFFFFFFFFFFFFFFFFFFFFFFFFFFFFFFFFFFFF AND PUSH20 0xFFFFFFFFFFFFFFFFFFFFFFFFFFFFFFFFFFFFFFFF AND CALLER PUSH20 0xFFFFFFFFFFFFFFFFFFFFFFFFFFFFFFFFFFFFFFFF AND EQ JUMPDEST PUSH2 0x42A JUMPI PUSH1 0x40 MLOAD PUSH32 0x8C379A000000000000000000000000000000000000000000000000000000000 DUP2 MSTORE PUSH1 0x4 ADD PUSH2 0x421 SWAP1 PUSH2 0x2EC1 JUMP JUMPDEST PUSH1 0x40 MLOAD DUP1 SWAP2 SUB SWAP1 REVERT JUMPDEST PUSH1 0x2 PUSH1 0x0 DUP8 DUP2 MSTORE PUSH1 0x20 ADD SWAP1 DUP2 MSTORE PUSH1 0x20 ADD PUSH1 0x0 KECCAK256 PUSH1 0x0 ADD PUSH1 0x0 SWAP1 SLOAD SWAP1 PUSH2 0x100 EXP SWAP1 DIV PUSH20 0xFFFFFFFFFFFFFFFFFFFFFFFFFFFFFFFFFFFFFFFF AND PUSH20 0xFFFFFFFFFFFFFFFFFFFFFFFFFFFFFFFFFFFFFFFF AND CALLER PUSH20 0xFFFFFFFFFFFFFFFFFFFFFFFFFFFFFFFFFFFFFFFF AND EQ ISZERO PUSH2 0x5B1 JUMPI PUSH1 0x0 PUSH1 0x2 PUSH1 0x0 DUP9 DUP2 MSTORE PUSH1 0x20 ADD SWAP1 DUP2 MSTORE PUSH1 0x20 ADD PUSH1 0x0 KECCAK256 PUSH1 0x7 ADD PUSH1 0x0 SWAP1 SLOAD SWAP1 PUSH2 0x100 EXP SWAP1 DIV PUSH1 0xFF AND PUSH1 0xFF AND EQ PUSH2 0x4FD JUMPI PUSH1 0x40 MLOAD PUSH32 0x8C379A000000000000000000000000000000000000000000000000000000000 DUP2 MSTORE PUSH1 0x4 ADD PUSH2 0x4F4 SWAP1 PUSH2 0x2D61 JUMP JUMPDEST PUSH1 0x40 MLOAD DUP1 SWAP2 SUB SWAP1 REVERT JUMPDEST PUSH1 0x2 PUSH1 0x0 DUP8 DUP2 MSTORE PUSH1 0x20 ADD SWAP1 DUP2 MSTORE PUSH1 0x20 ADD PUSH1 0x0 KECCAK256 PUSH1 0x5 ADD SLOAD DUP5 DUP7 PUSH1 0x40 MLOAD PUSH1 0x20 ADD PUSH2 0x527 SWAP3 SWAP2 SWAP1 PUSH2 0x2BB6 JUMP JUMPDEST PUSH1 0x40 MLOAD PUSH1 0x20 DUP2 DUP4 SUB SUB DUP2 MSTORE SWAP1 PUSH1 0x40 MSTORE DUP1 MLOAD SWAP1 PUSH1 0x20 ADD KECCAK256 EQ PUSH2 0x57D JUMPI PUSH1 0x40 MLOAD PUSH32 0x8C379A000000000000000000000000000000000000000000000000000000000 DUP2 MSTORE PUSH1 0x4 ADD PUSH2 0x574 SWAP1 PUSH2 0x2D81 JUMP JUMPDEST PUSH1 0x40 MLOAD DUP1 SWAP2 SUB SWAP1 REVERT JUMPDEST DUP5 PUSH1 0x2 PUSH1 0x0 DUP9 DUP2 MSTORE PUSH1 0x20 ADD SWAP1 DUP2 MSTORE PUSH1 0x20 ADD PUSH1 0x0 KECCAK256 PUSH1 0x7 ADD PUSH1 0x0 PUSH2 0x100 EXP DUP2 SLOAD DUP2 PUSH1 0xFF MUL NOT AND SWAP1 DUP4 PUSH1 0xFF AND MUL OR SWAP1 SSTORE POP PUSH2 0x6CA JUMP JUMPDEST PUSH1 0x0 PUSH1 0x2 PUSH1 0x0 DUP9 DUP2 MSTORE PUSH1 0x20 ADD SWAP1 DUP2 MSTORE PUSH1 0x20 ADD PUSH1 0x0 KECCAK256 PUSH1 0x7 ADD PUSH1 0x1 SWAP1 SLOAD SWAP1 PUSH2 0x100 EXP SWAP1 DIV PUSH1 0xFF AND PUSH1 0xFF AND EQ PUSH2 0x61A JUMPI PUSH1 0x40 MLOAD PUSH32 0x8C379A000000000000000000000000000000000000000000000000000000000 DUP2 MSTORE PUSH1 0x4 ADD PUSH2 0x611 SWAP1 PUSH2 0x2D61 JUMP JUMPDEST PUSH1 0x40 MLOAD DUP1 SWAP2 SUB SWAP1 REVERT JUMPDEST PUSH1 0x2 PUSH1 0x0 DUP8 DUP2 MSTORE PUSH1 0x20 ADD SWAP1 DUP2 MSTORE PUSH1 0x20 ADD PUSH1 0x0 KECCAK256 PUSH1 0x6 ADD SLOAD DUP5 DUP7 PUSH1 0x40 MLOAD PUSH1 0x20 ADD PUSH2 0x644 SWAP3 SWAP2 SWAP1 PUSH2 0x2BB6 JUMP JUMPDEST PUSH1 0x40 MLOAD PUSH1 0x20 DUP2 DUP4 SUB SUB DUP2 MSTORE SWAP1 PUSH1 0x40 MSTORE DUP1 MLOAD SWAP1 PUSH1 0x20 ADD KECCAK256 EQ PUSH2 0x69A JUMPI PUSH1 0x40 MLOAD PUSH32 0x8C379A000000000000000000000000000000000000000000000000000000000 DUP2 MSTORE PUSH1 0x4 ADD PUSH2 0x691 SWAP1 PUSH2 0x2D81 JUMP JUMPDEST PUSH1 0x40 MLOAD DUP1 SWAP2 SUB SWAP1 REVERT JUMPDEST DUP5 PUSH1 0x2 PUSH1 0x0 DUP9 DUP2 MSTORE PUSH1 0x20 ADD SWAP1 DUP2 MSTORE PUSH1 0x20 ADD PUSH1 0x0 KECCAK256 PUSH1 0x7 ADD PUSH1 0x1 PUSH2 0x100 EXP DUP2 SLOAD DUP2 PUSH1 0xFF MUL NOT AND SWAP1 DUP4 PUSH1 0xFF AND MUL OR SWAP1 SSTORE POP JUMPDEST PUSH1 0x0 PUSH1 0x2 PUSH1 0x0 DUP9 DUP2 MSTORE PUSH1 0x20 ADD SWAP1 DUP2 MSTORE PUSH1 0x20 ADD PUSH1 0x0 KECCAK256 PUSH1 0x7 ADD PUSH1 0x0 SWAP1 SLOAD SWAP1 PUSH2 0x100 EXP SWAP1 DIV PUSH1 0xFF AND PUSH1 0xFF AND EQ ISZERO DUP1 ISZERO PUSH2 0x728 JUMPI POP PUSH1 0x0 PUSH1 0x2 PUSH1 0x0 DUP9 DUP2 MSTORE PUSH1 0x20 ADD SWAP1 DUP2 MSTORE PUSH1 0x20 ADD PUSH1 0x0 KECCAK256 PUSH1 0x7 ADD PUSH1 0x1 SWAP1 SLOAD SWAP1 PUSH2 0x100 EXP SWAP1 DIV PUSH1 0xFF AND PUSH1 0xFF AND EQ ISZERO JUMPDEST ISZERO PUSH2 0x772 JUMPI PUSH32 0x42692E7EA128EEADE7DB883116C3013522593012B8018DE4359F11CD7B8026F6 DUP7 PUSH2 0x75B DUP9 DUP7 DUP7 DUP7 PUSH2 0x193B JUMP JUMPDEST PUSH1 0x40 MLOAD PUSH2 0x769 SWAP3 SWAP2 SWAP1 PUSH2 0x2D16 JUMP JUMPDEST PUSH1 0x40 MLOAD DUP1 SWAP2 SUB SWAP1 LOG1 JUMPDEST POP POP POP POP POP POP JUMP JUMPDEST PUSH1 0x0 DUP1 SLOAD SWAP1 PUSH2 0x100 EXP SWAP1 DIV PUSH20 0xFFFFFFFFFFFFFFFFFFFFFFFFFFFFFFFFFFFFFFFF AND PUSH20 0xFFFFFFFFFFFFFFFFFFFFFFFFFFFFFFFFFFFFFFFF AND CALLER PUSH20 0xFFFFFFFFFFFFFFFFFFFFFFFFFFFFFFFFFFFFFFFF AND EQ PUSH2 0x808 JUMPI PUSH1 0x40 MLOAD PUSH32 0x8C379A000000000000000000000000000000000000000000000000000000000 DUP2 MSTORE PUSH1 0x4 ADD PUSH2 0x7FF SWAP1 PUSH2 0x2E21 JUMP JUMPDEST PUSH1 0x40 MLOAD DUP1 SWAP2 SUB SWAP1 REVERT JUMPDEST CALLER PUSH20 0xFFFFFFFFFFFFFFFFFFFFFFFFFFFFFFFFFFFFFFFF AND PUSH2 0x8FC SELFBALANCE SWAP1 DUP2 ISZERO MUL SWAP1 PUSH1 0x40 MLOAD PUSH1 0x0 PUSH1 0x40 MLOAD DUP1 DUP4 SUB DUP2 DUP6 DUP9 DUP9 CALL SWAP4 POP POP POP POP ISZERO DUP1 ISZERO PUSH2 0x84E JUMPI RETURNDATASIZE PUSH1 0x0 DUP1 RETURNDATACOPY RETURNDATASIZE PUSH1 0x0 REVERT JUMPDEST POP JUMP JUMPDEST CALLER PUSH20 0xFFFFFFFFFFFFFFFFFFFFFFFFFFFFFFFFFFFFFFFF AND PUSH1 0x2 PUSH1 0x0 DUP4 DUP2 MSTORE PUSH1 0x20 ADD SWAP1 DUP2 MSTORE PUSH1 0x20 ADD PUSH1 0x0 KECCAK256 PUSH1 0x0 ADD PUSH1 0x0 SWAP1 SLOAD SWAP1 PUSH2 0x100 EXP SWAP1 DIV PUSH20 0xFFFFFFFFFFFFFFFFFFFFFFFFFFFFFFFFFFFFFFFF AND PUSH20 0xFFFFFFFFFFFFFFFFFFFFFFFFFFFFFFFFFFFFFFFF AND EQ DUP1 PUSH2 0x922 JUMPI POP CALLER PUSH20 0xFFFFFFFFFFFFFFFFFFFFFFFFFFFFFFFFFFFFFFFF AND PUSH1 0x2 PUSH1 0x0 DUP4 DUP2 MSTORE PUSH1 0x20 ADD SWAP1 DUP2 MSTORE PUSH1 0x20 ADD PUSH1 0x0 KECCAK256 PUSH1 0x1 ADD PUSH1 0x0 SWAP1 SLOAD SWAP1 PUSH2 0x100 EXP SWAP1 DIV PUSH20 0xFFFFFFFFFFFFFFFFFFFFFFFFFFFFFFFFFFFFFFFF AND PUSH20 0xFFFFFFFFFFFFFFFFFFFFFFFFFFFFFFFFFFFFFFFF AND EQ JUMPDEST PUSH2 0x961 JUMPI PUSH1 0x40 MLOAD PUSH32 0x8C379A000000000000000000000000000000000000000000000000000000000 DUP2 MSTORE PUSH1 0x4 ADD PUSH2 0x958 SWAP1 PUSH2 0x2EC1 JUMP JUMPDEST PUSH1 0x40 MLOAD DUP1 SWAP2 SUB SWAP1 REVERT JUMPDEST PUSH1 0x1 PUSH1 0x2 PUSH1 0x0 DUP4 DUP2 MSTORE PUSH1 0x20 ADD SWAP1 DUP2 MSTORE PUSH1 0x20 ADD PUSH1 0x0 KECCAK256 PUSH1 0x7 ADD PUSH1 0x16 SWAP1 SLOAD SWAP1 PUSH2 0x100 EXP SWAP1 DIV PUSH1 0xFF AND PUSH1 0xFF AND EQ DUP1 PUSH2 0x9BB JUMPI POP PUSH1 0x2 DUP1 PUSH1 0x0 DUP4 DUP2 MSTORE PUSH1 0x20 ADD SWAP1 DUP2 MSTORE PUSH1 0x20 ADD PUSH1 0x0 KECCAK256 PUSH1 0x7 ADD PUSH1 0x16 SWAP1 SLOAD SWAP1 PUSH2 0x100 EXP SWAP1 DIV PUSH1 0xFF AND PUSH1 0xFF AND EQ JUMPDEST PUSH2 0x9FA JUMPI PUSH1 0x40 MLOAD PUSH32 0x8C379A000000000000000000000000000000000000000000000000000000000 DUP2 MSTORE PUSH1 0x4 ADD PUSH2 0x9F1 SWAP1 PUSH2 0x2E01 JUMP JUMPDEST PUSH1 0x40 MLOAD DUP1 SWAP2 SUB SWAP1 REVERT JUMPDEST PUSH1 0x0 PUSH1 0x2 PUSH1 0x0 DUP4 DUP2 MSTORE PUSH1 0x20 ADD SWAP1 DUP2 MSTORE PUSH1 0x20 ADD PUSH1 0x0 KECCAK256 PUSH1 0x4 ADD SLOAD SWAP1 POP PUSH32 0x1BDC3DC79ECF2B2E1E2C50646C0B4F552303C5FD8A889B6B1114E7B0B3A20014 DUP3 PUSH1 0x40 MLOAD PUSH2 0xA44 SWAP2 SWAP1 PUSH2 0x2CFB JUMP JUMPDEST PUSH1 0x40 MLOAD DUP1 SWAP2 SUB SWAP1 LOG1 PUSH1 0x0 DUP2 EQ ISZERO PUSH2 0xA8B JUMPI PUSH1 0x4 PUSH1 0x2 PUSH1 0x0 DUP5 DUP2 MSTORE PUSH1 0x20 ADD SWAP1 DUP2 MSTORE PUSH1 0x20 ADD PUSH1 0x0 KECCAK256 PUSH1 0x7 ADD PUSH1 0x16 PUSH2 0x100 EXP DUP2 SLOAD DUP2 PUSH1 0xFF MUL NOT AND SWAP1 DUP4 PUSH1 0xFF AND MUL OR SWAP1 SSTORE POP POP PUSH2 0xDC3 JUMP JUMPDEST PUSH1 0x1 PUSH1 0x2 PUSH1 0x0 DUP5 DUP2 MSTORE PUSH1 0x20 ADD SWAP1 DUP2 MSTORE PUSH1 0x20 ADD PUSH1 0x0 KECCAK256 PUSH1 0x7 ADD PUSH1 0x16 SWAP1 SLOAD SWAP1 PUSH2 0x100 EXP SWAP1 DIV PUSH1 0xFF AND PUSH1 0xFF AND EQ ISZERO PUSH2 0xBD2 JUMPI PUSH1 0x4 PUSH1 0x2 PUSH1 0x0 DUP5 DUP2 MSTORE PUSH1 0x20 ADD SWAP1 DUP2 MSTORE PUSH1 0x20 ADD PUSH1 0x0 KECCAK256 PUSH1 0x7 ADD PUSH1 0x16 PUSH2 0x100 EXP DUP2 SLOAD DUP2 PUSH1 0xFF MUL NOT AND SWAP1 DUP4 PUSH1 0xFF AND MUL OR SWAP1 SSTORE POP PUSH1 0x0 PUSH1 0x2 PUSH1 0x0 DUP5 DUP2 MSTORE PUSH1 0x20 ADD SWAP1 DUP2 MSTORE PUSH1 0x20 ADD PUSH1 0x0 KECCAK256 PUSH1 0x0 ADD PUSH1 0x0 SWAP1 SLOAD SWAP1 PUSH2 0x100 EXP SWAP1 DIV PUSH20 0xFFFFFFFFFFFFFFFFFFFFFFFFFFFFFFFFFFFFFFFF AND PUSH20 0xFFFFFFFFFFFFFFFFFFFFFFFFFFFFFFFFFFFFFFFF AND DUP3 PUSH1 0x40 MLOAD PUSH2 0xB46 SWAP1 PUSH2 0x2BA1 JUMP JUMPDEST PUSH1 0x0 PUSH1 0x40 MLOAD DUP1 DUP4 SUB DUP2 DUP6 DUP8 GAS CALL SWAP3 POP POP POP RETURNDATASIZE DUP1 PUSH1 0x0 DUP2 EQ PUSH2 0xB83 JUMPI PUSH1 0x40 MLOAD SWAP2 POP PUSH1 0x1F NOT PUSH1 0x3F RETURNDATASIZE ADD AND DUP3 ADD PUSH1 0x40 MSTORE RETURNDATASIZE DUP3 MSTORE RETURNDATASIZE PUSH1 0x0 PUSH1 0x20 DUP5 ADD RETURNDATACOPY PUSH2 0xB88 JUMP JUMPDEST PUSH1 0x60 SWAP2 POP JUMPDEST POP POP SWAP1 POP DUP1 PUSH2 0xBCC JUMPI PUSH1 0x40 MLOAD PUSH32 0x8C379A000000000000000000000000000000000000000000000000000000000 DUP2 MSTORE PUSH1 0x4 ADD PUSH2 0xBC3 SWAP1 PUSH2 0x2EA1 JUMP JUMPDEST PUSH1 0x40 MLOAD DUP1 SWAP2 SUB SWAP1 REVERT JUMPDEST POP PUSH2 0xDC1 JUMP JUMPDEST PUSH1 0x2 DUP1 PUSH1 0x0 DUP5 DUP2 MSTORE PUSH1 0x20 ADD SWAP1 DUP2 MSTORE PUSH1 0x20 ADD PUSH1 0x0 KECCAK256 PUSH1 0x7 ADD PUSH1 0x16 SWAP1 SLOAD SWAP1 PUSH2 0x100 EXP SWAP1 DIV PUSH1 0xFF AND PUSH1 0xFF AND EQ ISZERO PUSH2 0xDC0 JUMPI PUSH1 0x4 PUSH1 0x2 PUSH1 0x0 DUP5 DUP2 MSTORE PUSH1 0x20 ADD SWAP1 DUP2 MSTORE PUSH1 0x20 ADD PUSH1 0x0 KECCAK256 PUSH1 0x7 ADD PUSH1 0x16 PUSH2 0x100 EXP DUP2 SLOAD DUP2 PUSH1 0xFF MUL NOT AND SWAP1 DUP4 PUSH1 0xFF AND MUL OR SWAP1 SSTORE POP PUSH1 0x0 PUSH1 0x2 PUSH1 0x0 DUP5 DUP2 MSTORE PUSH1 0x20 ADD SWAP1 DUP2 MSTORE PUSH1 0x20 ADD PUSH1 0x0 KECCAK256 PUSH1 0x0 ADD PUSH1 0x0 SWAP1 SLOAD SWAP1 PUSH2 0x100 EXP SWAP1 DIV PUSH20 0xFFFFFFFFFFFFFFFFFFFFFFFFFFFFFFFFFFFFFFFF AND PUSH20 0xFFFFFFFFFFFFFFFFFFFFFFFFFFFFFFFFFFFFFFFF AND DUP3 PUSH1 0x40 MLOAD PUSH2 0xC8C SWAP1 PUSH2 0x2BA1 JUMP JUMPDEST PUSH1 0x0 PUSH1 0x40 MLOAD DUP1 DUP4 SUB DUP2 DUP6 DUP8 GAS CALL SWAP3 POP POP POP RETURNDATASIZE DUP1 PUSH1 0x0 DUP2 EQ PUSH2 0xCC9 JUMPI PUSH1 0x40 MLOAD SWAP2 POP PUSH1 0x1F NOT PUSH1 0x3F RETURNDATASIZE ADD AND DUP3 ADD PUSH1 0x40 MSTORE RETURNDATASIZE DUP3 MSTORE RETURNDATASIZE PUSH1 0x0 PUSH1 0x20 DUP5 ADD RETURNDATACOPY PUSH2 0xCCE JUMP JUMPDEST PUSH1 0x60 SWAP2 POP JUMPDEST POP POP SWAP1 POP PUSH1 0x0 PUSH1 0x2 PUSH1 0x0 DUP6 DUP2 MSTORE PUSH1 0x20 ADD SWAP1 DUP2 MSTORE PUSH1 0x20 ADD PUSH1 0x0 KECCAK256 PUSH1 0x1 ADD PUSH1 0x0 SWAP1 SLOAD SWAP1 PUSH2 0x100 EXP SWAP1 DIV PUSH20 0xFFFFFFFFFFFFFFFFFFFFFFFFFFFFFFFFFFFFFFFF AND PUSH20 0xFFFFFFFFFFFFFFFFFFFFFFFFFFFFFFFFFFFFFFFF AND DUP4 PUSH1 0x40 MLOAD PUSH2 0xD2E SWAP1 PUSH2 0x2BA1 JUMP JUMPDEST PUSH1 0x0 PUSH1 0x40 MLOAD DUP1 DUP4 SUB DUP2 DUP6 DUP8 GAS CALL SWAP3 POP POP POP RETURNDATASIZE DUP1 PUSH1 0x0 DUP2 EQ PUSH2 0xD6B JUMPI PUSH1 0x40 MLOAD SWAP2 POP PUSH1 0x1F NOT PUSH1 0x3F RETURNDATASIZE ADD AND DUP3 ADD PUSH1 0x40 MSTORE RETURNDATASIZE DUP3 MSTORE RETURNDATASIZE PUSH1 0x0 PUSH1 0x20 DUP5 ADD RETURNDATACOPY PUSH2 0xD70 JUMP JUMPDEST PUSH1 0x60 SWAP2 POP JUMPDEST POP POP SWAP1 POP DUP2 DUP1 ISZERO PUSH2 0xD7E JUMPI POP DUP1 JUMPDEST PUSH2 0xDBD JUMPI PUSH1 0x40 MLOAD PUSH32 0x8C379A000000000000000000000000000000000000000000000000000000000 DUP2 MSTORE PUSH1 0x4 ADD PUSH2 0xDB4 SWAP1 PUSH2 0x2EA1 JUMP JUMPDEST PUSH1 0x40 MLOAD DUP1 SWAP2 SUB SWAP1 REVERT JUMPDEST POP POP JUMPDEST JUMPDEST POP JUMPDEST POP JUMP JUMPDEST PUSH2 0xDCE PUSH2 0x23B7 JUMP JUMPDEST PUSH1 0x0 PUSH1 0x2 PUSH1 0x0 DUP5 DUP2 MSTORE PUSH1 0x20 ADD SWAP1 DUP2 MSTORE PUSH1 0x20 ADD PUSH1 0x0 KECCAK256 PUSH1 0x7 ADD PUSH1 0x16 SWAP1 SLOAD SWAP1 PUSH2 0x100 EXP SWAP1 DIV PUSH1 0xFF AND PUSH1 0xFF AND EQ ISZERO PUSH2 0xE38 JUMPI PUSH1 0x40 MLOAD PUSH32 0x8C379A000000000000000000000000000000000000000000000000000000000 DUP2 MSTORE PUSH1 0x4 ADD PUSH2 0xE2F SWAP1 PUSH2 0x2E41 JUMP JUMPDEST PUSH1 0x40 MLOAD DUP1 SWAP2 SUB SWAP1 REVERT JUMPDEST PUSH1 0x2 PUSH1 0x0 DUP4 DUP2 MSTORE PUSH1 0x20 ADD SWAP1 DUP2 MSTORE PUSH1 0x20 ADD PUSH1 0x0 KECCAK256 PUSH1 0x40 MLOAD DUP1 PUSH2 0x160 ADD PUSH1 0x40 MSTORE SWAP1 DUP2 PUSH1 0x0 DUP3 ADD PUSH1 0x0 SWAP1 SLOAD SWAP1 PUSH2 0x100 EXP SWAP1 DIV PUSH20 0xFFFFFFFFFFFFFFFFFFFFFFFFFFFFFFFFFFFFFFFF AND PUSH20 0xFFFFFFFFFFFFFFFFFFFFFFFFFFFFFFFFFFFFFFFF AND PUSH20 0xFFFFFFFFFFFFFFFFFFFFFFFFFFFFFFFFFFFFFFFF AND DUP2 MSTORE PUSH1 0x20 ADD PUSH1 0x1 DUP3 ADD PUSH1 0x0 SWAP1 SLOAD SWAP1 PUSH2 0x100 EXP SWAP1 DIV PUSH20 0xFFFFFFFFFFFFFFFFFFFFFFFFFFFFFFFFFFFFFFFF AND PUSH20 0xFFFFFFFFFFFFFFFFFFFFFFFFFFFFFFFFFFFFFFFF AND PUSH20 0xFFFFFFFFFFFFFFFFFFFFFFFFFFFFFFFFFFFFFFFF AND DUP2 MSTORE PUSH1 0x20 ADD PUSH1 0x2 DUP3 ADD DUP1 SLOAD PUSH2 0xF13 SWAP1 PUSH2 0x31D3 JUMP JUMPDEST DUP1 PUSH1 0x1F ADD PUSH1 0x20 DUP1 SWAP2 DIV MUL PUSH1 0x20 ADD PUSH1 0x40 MLOAD SWAP1 DUP2 ADD PUSH1 0x40 MSTORE DUP1 SWAP3 SWAP2 SWAP1 DUP2 DUP2 MSTORE PUSH1 0x20 ADD DUP3 DUP1 SLOAD PUSH2 0xF3F SWAP1 PUSH2 0x31D3 JUMP JUMPDEST DUP1 ISZERO PUSH2 0xF8C JUMPI DUP1 PUSH1 0x1F LT PUSH2 0xF61 JUMPI PUSH2 0x100 DUP1 DUP4 SLOAD DIV MUL DUP4 MSTORE SWAP2 PUSH1 0x20 ADD SWAP2 PUSH2 0xF8C JUMP JUMPDEST DUP3 ADD SWAP2 SWAP1 PUSH1 0x0 MSTORE PUSH1 0x20 PUSH1 0x0 KECCAK256 SWAP1 JUMPDEST DUP2 SLOAD DUP2 MSTORE SWAP1 PUSH1 0x1 ADD SWAP1 PUSH1 0x20 ADD DUP1 DUP4 GT PUSH2 0xF6F JUMPI DUP3 SWAP1 SUB PUSH1 0x1F AND DUP3 ADD SWAP2 JUMPDEST POP POP POP POP POP DUP2 MSTORE PUSH1 0x20 ADD PUSH1 0x3 DUP3 ADD DUP1 SLOAD PUSH2 0xFA5 SWAP1 PUSH2 0x31D3 JUMP JUMPDEST DUP1 PUSH1 0x1F ADD PUSH1 0x20 DUP1 SWAP2 DIV MUL PUSH1 0x20 ADD PUSH1 0x40 MLOAD SWAP1 DUP2 ADD PUSH1 0x40 MSTORE DUP1 SWAP3 SWAP2 SWAP1 DUP2 DUP2 MSTORE PUSH1 0x20 ADD DUP3 DUP1 SLOAD PUSH2 0xFD1 SWAP1 PUSH2 0x31D3 JUMP JUMPDEST DUP1 ISZERO PUSH2 0x101E JUMPI DUP1 PUSH1 0x1F LT PUSH2 0xFF3 JUMPI PUSH2 0x100 DUP1 DUP4 SLOAD DIV MUL DUP4 MSTORE SWAP2 PUSH1 0x20 ADD SWAP2 PUSH2 0x101E JUMP JUMPDEST DUP3 ADD SWAP2 SWAP1 PUSH1 0x0 MSTORE PUSH1 0x20 PUSH1 0x0 KECCAK256 SWAP1 JUMPDEST DUP2 SLOAD DUP2 MSTORE SWAP1 PUSH1 0x1 ADD SWAP1 PUSH1 0x20 ADD DUP1 DUP4 GT PUSH2 0x1001 JUMPI DUP3 SWAP1 SUB PUSH1 0x1F AND DUP3 ADD SWAP2 JUMPDEST POP POP POP POP POP DUP2 MSTORE PUSH1 0x20 ADD PUSH1 0x4 DUP3 ADD SLOAD DUP2 MSTORE PUSH1 0x20 ADD PUSH1 0x5 DUP3 ADD SLOAD DUP2 MSTORE PUSH1 0x20 ADD PUSH1 0x6 DUP3 ADD SLOAD DUP2 MSTORE PUSH1 0x20 ADD PUSH1 0x7 DUP3 ADD PUSH1 0x0 SWAP1 SLOAD SWAP1 PUSH2 0x100 EXP SWAP1 DIV PUSH1 0xFF AND PUSH1 0xFF AND PUSH1 0xFF AND DUP2 MSTORE PUSH1 0x20 ADD PUSH1 0x7 DUP3 ADD PUSH1 0x1 SWAP1 SLOAD SWAP1 PUSH2 0x100 EXP SWAP1 DIV PUSH1 0xFF AND PUSH1 0xFF AND PUSH1 0xFF AND DUP2 MSTORE PUSH1 0x20 ADD PUSH1 0x7 DUP3 ADD PUSH1 0x2 SWAP1 SLOAD SWAP1 PUSH2 0x100 EXP SWAP1 DIV PUSH20 0xFFFFFFFFFFFFFFFFFFFFFFFFFFFFFFFFFFFFFFFF AND PUSH20 0xFFFFFFFFFFFFFFFFFFFFFFFFFFFFFFFFFFFFFFFF AND PUSH20 0xFFFFFFFFFFFFFFFFFFFFFFFFFFFFFFFFFFFFFFFF AND DUP2 MSTORE PUSH1 0x20 ADD PUSH1 0x7 DUP3 ADD PUSH1 0x16 SWAP1 SLOAD SWAP1 PUSH2 0x100 EXP SWAP1 DIV PUSH1 0xFF AND PUSH1 0xFF AND PUSH1 0xFF AND DUP2 MSTORE POP POP SWAP1 POP SWAP2 SWAP1 POP JUMP JUMPDEST PUSH1 0x0 DUP1 SLOAD SWAP1 PUSH2 0x100 EXP SWAP1 DIV PUSH20 0xFFFFFFFFFFFFFFFFFFFFFFFFFFFFFFFFFFFFFFFF AND DUP2 JUMP JUMPDEST PUSH1 0x3 PUSH1 0x2 PUSH1 0x0 DUP7 DUP2 MSTORE PUSH1 0x20 ADD SWAP1 DUP2 MSTORE PUSH1 0x20 ADD PUSH1 0x0 KECCAK256 PUSH1 0x7 ADD PUSH1 0x16 SWAP1 SLOAD SWAP1 PUSH2 0x100 EXP SWAP1 DIV PUSH1 0xFF AND PUSH1 0xFF AND LT PUSH2 0x1186 JUMPI PUSH1 0x40 MLOAD PUSH32 0x8C379A000000000000000000000000000000000000000000000000000000000 DUP2 MSTORE PUSH1 0x4 ADD PUSH2 0x117D SWAP1 PUSH2 0x2E01 JUMP JUMPDEST PUSH1 0x40 MLOAD DUP1 SWAP2 SUB SWAP1 REVERT JUMPDEST PUSH1 0x1 PUSH1 0x0 CALLER PUSH20 0xFFFFFFFFFFFFFFFFFFFFFFFFFFFFFFFFFFFFFFFF AND PUSH20 0xFFFFFFFFFFFFFFFFFFFFFFFFFFFFFFFFFFFFFFFF AND DUP2 MSTORE PUSH1 0x20 ADD SWAP1 DUP2 MSTORE PUSH1 0x20 ADD PUSH1 0x0 KECCAK256 PUSH1 0x0 ADD PUSH1 0x0 SWAP1 SLOAD SWAP1 PUSH2 0x100 EXP SWAP1 DIV PUSH1 0xFF AND PUSH2 0x11E4 JUMPI PUSH2 0x11E3 CALLER PUSH2 0x203F JUMP JUMPDEST JUMPDEST PUSH1 0x1 PUSH1 0x2 PUSH1 0x0 DUP7 DUP2 MSTORE PUSH1 0x20 ADD SWAP1 DUP2 MSTORE PUSH1 0x20 ADD PUSH1 0x0 KECCAK256 PUSH1 0x7 ADD PUSH1 0x16 SWAP1 SLOAD SWAP1 PUSH2 0x100 EXP SWAP1 DIV PUSH1 0xFF AND PUSH1 0xFF AND GT ISZERO PUSH2 0x124E JUMPI PUSH1 0x40 MLOAD PUSH32 0x8C379A000000000000000000000000000000000000000000000000000000000 DUP2 MSTORE PUSH1 0x4 ADD PUSH2 0x1245 SWAP1 PUSH2 0x2DE1 JUMP JUMPDEST PUSH1 0x40 MLOAD DUP1 SWAP2 SUB SWAP1 REVERT JUMPDEST PUSH1 0x0 PUSH1 0x2 PUSH1 0x0 DUP7 DUP2 MSTORE PUSH1 0x20 ADD SWAP1 DUP2 MSTORE PUSH1 0x20 ADD PUSH1 0x0 KECCAK256 PUSH1 0x7 ADD PUSH1 0x16 SWAP1 SLOAD SWAP1 PUSH2 0x100 EXP SWAP1 DIV PUSH1 0xFF AND PUSH1 0xFF AND EQ ISZERO PUSH2 0x12DA JUMPI PUSH2 0x128A CALLER DUP4 DUP4 CALLVALUE DUP9 PUSH2 0x20E9 JUMP JUMPDEST DUP3 PUSH1 0x2 PUSH1 0x0 DUP7 DUP2 MSTORE PUSH1 0x20 ADD SWAP1 DUP2 MSTORE PUSH1 0x20 ADD PUSH1 0x0 KECCAK256 PUSH1 0x5 ADD DUP2 SWAP1 SSTORE POP PUSH1 0x1 PUSH1 0x2 PUSH1 0x0 DUP7 DUP2 MSTORE PUSH1 0x20 ADD SWAP1 DUP2 MSTORE PUSH1 0x20 ADD PUSH1 0x0 KECCAK256 PUSH1 0x7 ADD PUSH1 0x16 PUSH2 0x100 EXP DUP2 SLOAD DUP2 PUSH1 0xFF MUL NOT AND SWAP1 DUP4 PUSH1 0xFF AND MUL OR SWAP1 SSTORE POP PUSH2 0x1504 JUMP JUMPDEST PUSH1 0x1 PUSH1 0x2 PUSH1 0x0 DUP7 DUP2 MSTORE PUSH1 0x20 ADD SWAP1 DUP2 MSTORE PUSH1 0x20 ADD PUSH1 0x0 KECCAK256 PUSH1 0x7 ADD PUSH1 0x16 SWAP1 SLOAD SWAP1 PUSH2 0x100 EXP SWAP1 DIV PUSH1 0xFF AND PUSH1 0xFF AND EQ ISZERO PUSH2 0x1503 JUMPI CALLER PUSH20 0xFFFFFFFFFFFFFFFFFFFFFFFFFFFFFFFFFFFFFFFF AND PUSH1 0x2 PUSH1 0x0 DUP7 DUP2 MSTORE PUSH1 0x20 ADD SWAP1 DUP2 MSTORE PUSH1 0x20 ADD PUSH1 0x0 KECCAK256 PUSH1 0x0 ADD PUSH1 0x0 SWAP1 SLOAD SWAP1 PUSH2 0x100 EXP SWAP1 DIV PUSH20 0xFFFFFFFFFFFFFFFFFFFFFFFFFFFFFFFFFFFFFFFF AND PUSH20 0xFFFFFFFFFFFFFFFFFFFFFFFFFFFFFFFFFFFFFFFF AND EQ ISZERO PUSH2 0x13AE JUMPI PUSH1 0x40 MLOAD PUSH32 0x8C379A000000000000000000000000000000000000000000000000000000000 DUP2 MSTORE PUSH1 0x4 ADD PUSH2 0x13A5 SWAP1 PUSH2 0x2DE1 JUMP JUMPDEST PUSH1 0x40 MLOAD DUP1 SWAP2 SUB SWAP1 REVERT JUMPDEST CALLVALUE PUSH1 0x2 PUSH1 0x0 DUP7 DUP2 MSTORE PUSH1 0x20 ADD SWAP1 DUP2 MSTORE PUSH1 0x20 ADD PUSH1 0x0 KECCAK256 PUSH1 0x4 ADD SLOAD EQ PUSH2 0x1406 JUMPI PUSH1 0x40 MLOAD PUSH32 0x8C379A000000000000000000000000000000000000000000000000000000000 DUP2 MSTORE PUSH1 0x4 ADD PUSH2 0x13FD SWAP1 PUSH2 0x2DA1 JUMP JUMPDEST PUSH1 0x40 MLOAD DUP1 SWAP2 SUB SWAP1 REVERT JUMPDEST CALLER PUSH1 0x2 PUSH1 0x0 DUP7 DUP2 MSTORE PUSH1 0x20 ADD SWAP1 DUP2 MSTORE PUSH1 0x20 ADD PUSH1 0x0 KECCAK256 PUSH1 0x1 ADD PUSH1 0x0 PUSH2 0x100 EXP DUP2 SLOAD DUP2 PUSH20 0xFFFFFFFFFFFFFFFFFFFFFFFFFFFFFFFFFFFFFFFF MUL NOT AND SWAP1 DUP4 PUSH20 0xFFFFFFFFFFFFFFFFFFFFFFFFFFFFFFFFFFFFFFFF AND MUL OR SWAP1 SSTORE POP DUP2 DUP2 PUSH1 0x2 PUSH1 0x0 DUP8 DUP2 MSTORE PUSH1 0x20 ADD SWAP1 DUP2 MSTORE PUSH1 0x20 ADD PUSH1 0x0 KECCAK256 PUSH1 0x3 ADD SWAP2 SWAP1 PUSH2 0x1480 SWAP3 SWAP2 SWAP1 PUSH2 0x2462 JUMP JUMPDEST POP DUP3 PUSH1 0x2 PUSH1 0x0 DUP7 DUP2 MSTORE PUSH1 0x20 ADD SWAP1 DUP2 MSTORE PUSH1 0x20 ADD PUSH1 0x0 KECCAK256 PUSH1 0x6 ADD DUP2 SWAP1 SSTORE POP PUSH1 0x2 DUP1 PUSH1 0x0 DUP7 DUP2 MSTORE PUSH1 0x20 ADD SWAP1 DUP2 MSTORE PUSH1 0x20 ADD PUSH1 0x0 KECCAK256 PUSH1 0x7 ADD PUSH1 0x16 PUSH2 0x100 EXP DUP2 SLOAD DUP2 PUSH1 0xFF MUL NOT AND SWAP1 DUP4 PUSH1 0xFF AND MUL OR SWAP1 SSTORE POP PUSH32 0x21980CF2BA5A8AD6EE12A16DEA09C0470962F989AF2ED3FFEED2E31761736CA9 DUP5 PUSH1 0x40 MLOAD PUSH2 0x14FA SWAP2 SWAP1 PUSH2 0x2CFB JUMP JUMPDEST PUSH1 0x40 MLOAD DUP1 SWAP2 SUB SWAP1 LOG1 JUMPDEST JUMPDEST POP POP POP POP JUMP JUMPDEST PUSH1 0x0 DUP1 PUSH1 0x0 PUSH1 0x1 PUSH1 0x0 DUP6 PUSH20 0xFFFFFFFFFFFFFFFFFFFFFFFFFFFFFFFFFFFFFFFF AND PUSH20 0xFFFFFFFFFFFFFFFFFFFFFFFFFFFFFFFFFFFFFFFF AND DUP2 MSTORE PUSH1 0x20 ADD SWAP1 DUP2 MSTORE PUSH1 0x20 ADD PUSH1 0x0 KECCAK256 PUSH1 0x0 ADD PUSH1 0x0 SWAP1 SLOAD SWAP1 PUSH2 0x100 EXP SWAP1 DIV PUSH1 0xFF AND PUSH2 0x159E JUMPI PUSH1 0x40 MLOAD PUSH32 0x8C379A000000000000000000000000000000000000000000000000000000000 DUP2 MSTORE PUSH1 0x4 ADD PUSH2 0x1595 SWAP1 PUSH2 0x2E61 JUMP JUMPDEST PUSH1 0x40 MLOAD DUP1 SWAP2 SUB SWAP1 REVERT JUMPDEST PUSH1 0x1 PUSH1 0x0 DUP6 PUSH20 0xFFFFFFFFFFFFFFFFFFFFFFFFFFFFFFFFFFFFFFFF AND PUSH20 0xFFFFFFFFFFFFFFFFFFFFFFFFFFFFFFFFFFFFFFFF AND DUP2 MSTORE PUSH1 0x20 ADD SWAP1 DUP2 MSTORE PUSH1 0x20 ADD PUSH1 0x0 KECCAK256 PUSH1 0x1 ADD SLOAD PUSH1 0x1 PUSH1 0x0 DUP7 PUSH20 0xFFFFFFFFFFFFFFFFFFFFFFFFFFFFFFFFFFFFFFFF AND PUSH20 0xFFFFFFFFFFFFFFFFFFFFFFFFFFFFFFFFFFFFFFFF AND DUP2 MSTORE PUSH1 0x20 ADD SWAP1 DUP2 MSTORE PUSH1 0x20 ADD PUSH1 0x0 KECCAK256 PUSH1 0x2 ADD SLOAD PUSH1 0x1 PUSH1 0x0 DUP8 PUSH20 0xFFFFFFFFFFFFFFFFFFFFFFFFFFFFFFFFFFFFFFFF AND PUSH20 0xFFFFFFFFFFFFFFFFFFFFFFFFFFFFFFFFFFFFFFFF AND DUP2 MSTORE PUSH1 0x20 ADD SWAP1 DUP2 MSTORE PUSH1 0x20 ADD PUSH1 0x0 KECCAK256 PUSH1 0x3 ADD SLOAD SWAP3 POP SWAP3 POP SWAP3 POP SWAP2 SWAP4 SWAP1 SWAP3 POP JUMP JUMPDEST PUSH1 0x1 PUSH1 0x20 MSTORE DUP1 PUSH1 0x0 MSTORE PUSH1 0x40 PUSH1 0x0 KECCAK256 PUSH1 0x0 SWAP2 POP SWAP1 POP DUP1 PUSH1 0x0 ADD PUSH1 0x0 SWAP1 SLOAD SWAP1 PUSH2 0x100 EXP SWAP1 DIV PUSH1 0xFF AND SWAP1 DUP1 PUSH1 0x1 ADD SLOAD SWAP1 DUP1 PUSH1 0x2 ADD SLOAD SWAP1 DUP1 PUSH1 0x3 ADD SLOAD SWAP1 POP DUP5 JUMP JUMPDEST PUSH1 0x2 PUSH1 0x20 MSTORE DUP1 PUSH1 0x0 MSTORE PUSH1 0x40 PUSH1 0x0 KECCAK256 PUSH1 0x0 SWAP2 POP SWAP1 POP DUP1 PUSH1 0x0 ADD PUSH1 0x0 SWAP1 SLOAD SWAP1 PUSH2 0x100 EXP SWAP1 DIV PUSH20 0xFFFFFFFFFFFFFFFFFFFFFFFFFFFFFFFFFFFFFFFF AND SWAP1 DUP1 PUSH1 0x1 ADD PUSH1 0x0 SWAP1 SLOAD SWAP1 PUSH2 0x100 EXP SWAP1 DIV PUSH20 0xFFFFFFFFFFFFFFFFFFFFFFFFFFFFFFFFFFFFFFFF AND SWAP1 DUP1 PUSH1 0x2 ADD DUP1 SLOAD PUSH2 0x1720 SWAP1 PUSH2 0x31D3 JUMP JUMPDEST DUP1 PUSH1 0x1F ADD PUSH1 0x20 DUP1 SWAP2 DIV MUL PUSH1 0x20 ADD PUSH1 0x40 MLOAD SWAP1 DUP2 ADD PUSH1 0x40 MSTORE DUP1 SWAP3 SWAP2 SWAP1 DUP2 DUP2 MSTORE PUSH1 0x20 ADD DUP3 DUP1 SLOAD PUSH2 0x174C SWAP1 PUSH2 0x31D3 JUMP JUMPDEST DUP1 ISZERO PUSH2 0x1799 JUMPI DUP1 PUSH1 0x1F LT PUSH2 0x176E JUMPI PUSH2 0x100 DUP1 DUP4 SLOAD DIV MUL DUP4 MSTORE SWAP2 PUSH1 0x20 ADD SWAP2 PUSH2 0x1799 JUMP JUMPDEST DUP3 ADD SWAP2 SWAP1 PUSH1 0x0 MSTORE PUSH1 0x20 PUSH1 0x0 KECCAK256 SWAP1 JUMPDEST DUP2 SLOAD DUP2 MSTORE SWAP1 PUSH1 0x1 ADD SWAP1 PUSH1 0x20 ADD DUP1 DUP4 GT PUSH2 0x177C JUMPI DUP3 SWAP1 SUB PUSH1 0x1F AND DUP3 ADD SWAP2 JUMPDEST POP POP POP POP POP SWAP1 DUP1 PUSH1 0x3 ADD DUP1 SLOAD PUSH2 0x17AE SWAP1 PUSH2 0x31D3 JUMP JUMPDEST DUP1 PUSH1 0x1F ADD PUSH1 0x20 DUP1 SWAP2 DIV MUL PUSH1 0x20 ADD PUSH1 0x40 MLOAD SWAP1 DUP2 ADD PUSH1 0x40 MSTORE DUP1 SWAP3 SWAP2 SWAP1 DUP2 DUP2 MSTORE PUSH1 0x20 ADD DUP3 DUP1 SLOAD PUSH2 0x17DA SWAP1 PUSH2 0x31D3 JUMP JUMPDEST DUP1 ISZERO PUSH2 0x1827 JUMPI DUP1 PUSH1 0x1F LT PUSH2 0x17FC JUMPI PUSH2 0x100 DUP1 DUP4 SLOAD DIV MUL DUP4 MSTORE SWAP2 PUSH1 0x20 ADD SWAP2 PUSH2 0x1827 JUMP JUMPDEST DUP3 ADD SWAP2 SWAP1 PUSH1 0x0 MSTORE PUSH1 0x20 PUSH1 0x0 KECCAK256 SWAP1 JUMPDEST DUP2 SLOAD DUP2 MSTORE SWAP1 PUSH1 0x1 ADD SWAP1 PUSH1 0x20 ADD DUP1 DUP4 GT PUSH2 0x180A JUMPI DUP3 SWAP1 SUB PUSH1 0x1F AND DUP3 ADD SWAP2 JUMPDEST POP POP POP POP POP SWAP1 DUP1 PUSH1 0x4 ADD SLOAD SWAP1 DUP1 PUSH1 0x5 ADD SLOAD SWAP1 DUP1 PUSH1 0x6 ADD SLOAD SWAP1 DUP1 PUSH1 0x7 ADD PUSH1 0x0 SWAP1 SLOAD SWAP1 PUSH2 0x100 EXP SWAP1 DIV PUSH1 0xFF AND SWAP1 DUP1 PUSH1 0x7 ADD PUSH1 0x1 SWAP1 SLOAD SWAP1 PUSH2 0x100 EXP SWAP1 DIV PUSH1 0xFF AND SWAP1 DUP1 PUSH1 0x7 ADD PUSH1 0x2 SWAP1 SLOAD SWAP1 PUSH2 0x100 EXP SWAP1 DIV PUSH20 0xFFFFFFFFFFFFFFFFFFFFFFFFFFFFFFFFFFFFFFFF AND SWAP1 DUP1 PUSH1 0x7 ADD PUSH1 0x16 SWAP1 SLOAD SWAP1 PUSH2 0x100 EXP SWAP1 DIV PUSH1 0xFF AND SWAP1 POP DUP12 JUMP JUMPDEST PUSH2 0x1938 DUP2 PUSH1 0x40 MLOAD PUSH1 0x24 ADD PUSH2 0x18B6 SWAP2 SWAP1 PUSH2 0x2D3F JUMP JUMPDEST PUSH1 0x40 MLOAD PUSH1 0x20 DUP2 DUP4 SUB SUB DUP2 MSTORE SWAP1 PUSH1 0x40 MSTORE PUSH32 0x41304FAC00000000000000000000000000000000000000000000000000000000 PUSH28 0xFFFFFFFFFFFFFFFFFFFFFFFFFFFFFFFFFFFFFFFFFFFFFFFFFFFFFFFF NOT AND PUSH1 0x20 DUP3 ADD DUP1 MLOAD PUSH28 0xFFFFFFFFFFFFFFFFFFFFFFFFFFFFFFFFFFFFFFFFFFFFFFFFFFFFFFFF DUP4 DUP2 DUP4 AND OR DUP4 MSTORE POP POP POP POP PUSH2 0x238E JUMP JUMPDEST POP JUMP JUMPDEST PUSH1 0x0 PUSH1 0x2 DUP1 PUSH1 0x0 DUP8 DUP2 MSTORE PUSH1 0x20 ADD SWAP1 DUP2 MSTORE PUSH1 0x20 ADD PUSH1 0x0 KECCAK256 PUSH1 0x7 ADD PUSH1 0x16 SWAP1 SLOAD SWAP1 PUSH2 0x100 EXP SWAP1 DIV PUSH1 0xFF AND PUSH1 0xFF AND EQ PUSH2 0x1973 JUMPI PUSH2 0x1972 PUSH2 0x326A JUMP JUMPDEST JUMPDEST PUSH1 0x0 DUP1 PUSH1 0x0 PUSH1 0x2 PUSH1 0x0 DUP10 DUP2 MSTORE PUSH1 0x20 ADD SWAP1 DUP2 MSTORE PUSH1 0x20 ADD PUSH1 0x0 KECCAK256 PUSH1 0x0 ADD PUSH1 0x0 SWAP1 SLOAD SWAP1 PUSH2 0x100 EXP SWAP1 DIV PUSH20 0xFFFFFFFFFFFFFFFFFFFFFFFFFFFFFFFFFFFFFFFF AND SWAP1 POP PUSH1 0x0 PUSH1 0x2 PUSH1 0x0 DUP11 DUP2 MSTORE PUSH1 0x20 ADD SWAP1 DUP2 MSTORE PUSH1 0x20 ADD PUSH1 0x0 KECCAK256 PUSH1 0x1 ADD PUSH1 0x0 SWAP1 SLOAD SWAP1 PUSH2 0x100 EXP SWAP1 DIV PUSH20 0xFFFFFFFFFFFFFFFFFFFFFFFFFFFFFFFFFFFFFFFF AND SWAP1 POP PUSH1 0x0 PUSH1 0x2 PUSH1 0x0 DUP12 DUP2 MSTORE PUSH1 0x20 ADD SWAP1 DUP2 MSTORE PUSH1 0x20 ADD PUSH1 0x0 KECCAK256 PUSH1 0x7 ADD PUSH1 0x0 SWAP1 SLOAD SWAP1 PUSH2 0x100 EXP SWAP1 DIV PUSH1 0xFF AND SWAP1 POP PUSH1 0x0 PUSH1 0x2 PUSH1 0x0 DUP13 DUP2 MSTORE PUSH1 0x20 ADD SWAP1 DUP2 MSTORE PUSH1 0x20 ADD PUSH1 0x0 KECCAK256 PUSH1 0x7 ADD PUSH1 0x1 SWAP1 SLOAD SWAP1 PUSH2 0x100 EXP SWAP1 DIV PUSH1 0xFF AND SWAP1 POP PUSH1 0x1 PUSH1 0xFF AND DUP3 PUSH1 0xFF AND EQ DUP1 ISZERO PUSH2 0x1A58 JUMPI POP PUSH1 0x2 PUSH1 0xFF AND DUP2 PUSH1 0xFF AND EQ JUMPDEST ISZERO PUSH2 0x1A68 JUMPI DUP3 SWAP6 POP DUP4 SWAP5 POP PUSH2 0x1B52 JUMP JUMPDEST PUSH1 0x1 PUSH1 0xFF AND DUP2 PUSH1 0xFF AND EQ DUP1 ISZERO PUSH2 0x1A84 JUMPI POP PUSH1 0x2 PUSH1 0xFF AND DUP3 PUSH1 0xFF AND EQ JUMPDEST ISZERO PUSH2 0x1A94 JUMPI DUP4 SWAP6 POP DUP3 SWAP5 POP PUSH2 0x1B51 JUMP JUMPDEST PUSH1 0x3 PUSH1 0xFF AND DUP3 PUSH1 0xFF AND EQ DUP1 ISZERO PUSH2 0x1AB0 JUMPI POP PUSH1 0x2 PUSH1 0xFF AND DUP2 PUSH1 0xFF AND EQ JUMPDEST ISZERO PUSH2 0x1AC0 JUMPI DUP4 SWAP6 POP DUP3 SWAP5 POP PUSH2 0x1B50 JUMP JUMPDEST PUSH1 0x3 PUSH1 0xFF AND DUP2 PUSH1 0xFF AND EQ DUP1 ISZERO PUSH2 0x1ADC JUMPI POP PUSH1 0x2 PUSH1 0xFF AND DUP3 PUSH1 0xFF AND EQ JUMPDEST ISZERO PUSH2 0x1AEC JUMPI DUP3 SWAP6 POP DUP4 SWAP5 POP PUSH2 0x1B4F JUMP JUMPDEST PUSH1 0x1 PUSH1 0xFF AND DUP3 PUSH1 0xFF AND EQ DUP1 ISZERO PUSH2 0x1B08 JUMPI POP PUSH1 0x3 PUSH1 0xFF AND DUP2 PUSH1 0xFF AND EQ JUMPDEST ISZERO PUSH2 0x1B18 JUMPI DUP4 SWAP6 POP DUP3 SWAP5 POP PUSH2 0x1B4E JUMP JUMPDEST PUSH1 0x1 PUSH1 0xFF AND DUP2 PUSH1 0xFF AND EQ DUP1 ISZERO PUSH2 0x1B34 JUMPI POP PUSH1 0x3 PUSH1 0xFF AND DUP3 PUSH1 0xFF AND EQ JUMPDEST ISZERO PUSH2 0x1B44 JUMPI DUP3 SWAP6 POP DUP4 SWAP5 POP PUSH2 0x1B4D JUMP JUMPDEST PUSH1 0x0 SWAP6 POP PUSH1 0x0 SWAP5 POP JUMPDEST JUMPDEST JUMPDEST JUMPDEST JUMPDEST JUMPDEST PUSH1 0x3 PUSH1 0x2 PUSH1 0x0 DUP14 DUP2 MSTORE PUSH1 0x20 ADD SWAP1 DUP2 MSTORE PUSH1 0x20 ADD PUSH1 0x0 KECCAK256 PUSH1 0x7 ADD PUSH1 0x16 PUSH2 0x100 EXP DUP2 SLOAD DUP2 PUSH1 0xFF MUL NOT AND SWAP1 DUP4 PUSH1 0xFF AND MUL OR SWAP1 SSTORE POP DUP6 PUSH1 0x2 PUSH1 0x0 DUP14 DUP2 MSTORE PUSH1 0x20 ADD SWAP1 DUP2 MSTORE PUSH1 0x20 ADD PUSH1 0x0 KECCAK256 PUSH1 0x7 ADD PUSH1 0x2 PUSH2 0x100 EXP DUP2 SLOAD DUP2 PUSH20 0xFFFFFFFFFFFFFFFFFFFFFFFFFFFFFFFFFFFFFFFF MUL NOT AND SWAP1 DUP4 PUSH20 0xFFFFFFFFFFFFFFFFFFFFFFFFFFFFFFFFFFFFFFFF AND MUL OR SWAP1 SSTORE POP PUSH1 0x0 PUSH1 0x2 PUSH1 0x0 DUP14 DUP2 MSTORE PUSH1 0x20 ADD SWAP1 DUP2 MSTORE PUSH1 0x20 ADD PUSH1 0x0 KECCAK256 PUSH1 0x4 ADD SLOAD SWAP1 POP PUSH1 0x0 PUSH20 0xFFFFFFFFFFFFFFFFFFFFFFFFFFFFFFFFFFFFFFFF AND DUP8 PUSH20 0xFFFFFFFFFFFFFFFFFFFFFFFFFFFFFFFFFFFFFFFF AND EQ ISZERO PUSH2 0x1D58 JUMPI PUSH1 0x0 DUP2 EQ PUSH2 0x1D53 JUMPI PUSH1 0x0 DUP6 PUSH20 0xFFFFFFFFFFFFFFFFFFFFFFFFFFFFFFFFFFFFFFFF AND DUP3 PUSH1 0x40 MLOAD PUSH2 0x1C55 SWAP1 PUSH2 0x2BA1 JUMP JUMPDEST PUSH1 0x0 PUSH1 0x40 MLOAD DUP1 DUP4 SUB DUP2 DUP6 DUP8 GAS CALL SWAP3 POP POP POP RETURNDATASIZE DUP1 PUSH1 0x0 DUP2 EQ PUSH2 0x1C92 JUMPI PUSH1 0x40 MLOAD SWAP2 POP PUSH1 0x1F NOT PUSH1 0x3F RETURNDATASIZE ADD AND DUP3 ADD PUSH1 0x40 MSTORE RETURNDATASIZE DUP3 MSTORE RETURNDATASIZE PUSH1 0x0 PUSH1 0x20 DUP5 ADD RETURNDATACOPY PUSH2 0x1C97 JUMP JUMPDEST PUSH1 0x60 SWAP2 POP JUMPDEST POP POP SWAP1 POP PUSH1 0x0 DUP6 PUSH20 0xFFFFFFFFFFFFFFFFFFFFFFFFFFFFFFFFFFFFFFFF AND DUP4 PUSH1 0x40 MLOAD PUSH2 0x1CC1 SWAP1 PUSH2 0x2BA1 JUMP JUMPDEST PUSH1 0x0 PUSH1 0x40 MLOAD DUP1 DUP4 SUB DUP2 DUP6 DUP8 GAS CALL SWAP3 POP POP POP RETURNDATASIZE DUP1 PUSH1 0x0 DUP2 EQ PUSH2 0x1CFE JUMPI PUSH1 0x40 MLOAD SWAP2 POP PUSH1 0x1F NOT PUSH1 0x3F RETURNDATASIZE ADD AND DUP3 ADD PUSH1 0x40 MSTORE RETURNDATASIZE DUP3 MSTORE RETURNDATASIZE PUSH1 0x0 PUSH1 0x20 DUP5 ADD RETURNDATACOPY PUSH2 0x1D03 JUMP JUMPDEST PUSH1 0x60 SWAP2 POP JUMPDEST POP POP SWAP1 POP DUP2 DUP1 ISZERO PUSH2 0x1D11 JUMPI POP DUP1 JUMPDEST PUSH2 0x1D50 JUMPI PUSH1 0x40 MLOAD PUSH32 0x8C379A000000000000000000000000000000000000000000000000000000000 DUP2 MSTORE PUSH1 0x4 ADD PUSH2 0x1D47 SWAP1 PUSH2 0x2DC1 JUMP JUMPDEST PUSH1 0x40 MLOAD DUP1 SWAP2 SUB SWAP1 REVERT JUMPDEST POP POP JUMPDEST PUSH2 0x202D JUMP JUMPDEST PUSH1 0x0 DUP2 EQ PUSH2 0x1ECA JUMPI PUSH1 0x0 DUP8 PUSH20 0xFFFFFFFFFFFFFFFFFFFFFFFFFFFFFFFFFFFFFFFF AND PUSH1 0x64 DUP13 DUP5 PUSH1 0x2 PUSH2 0x1D89 SWAP2 SWAP1 PUSH2 0x3037 JUMP JUMPDEST PUSH2 0x1D93 SWAP2 SWAP1 PUSH2 0x3037 JUMP JUMPDEST PUSH2 0x1D9D SWAP2 SWAP1 PUSH2 0x3006 JUMP JUMPDEST PUSH1 0x40 MLOAD PUSH2 0x1DA9 SWAP1 PUSH2 0x2BA1 JUMP JUMPDEST PUSH1 0x0 PUSH1 0x40 MLOAD DUP1 DUP4 SUB DUP2 DUP6 DUP8 GAS CALL SWAP3 POP POP POP RETURNDATASIZE DUP1 PUSH1 0x0 DUP2 EQ PUSH2 0x1DE6 JUMPI PUSH1 0x40 MLOAD SWAP2 POP PUSH1 0x1F NOT PUSH1 0x3F RETURNDATASIZE ADD AND DUP3 ADD PUSH1 0x40 MSTORE RETURNDATASIZE DUP3 MSTORE RETURNDATASIZE PUSH1 0x0 PUSH1 0x20 DUP5 ADD RETURNDATACOPY PUSH2 0x1DEB JUMP JUMPDEST PUSH1 0x60 SWAP2 POP JUMPDEST POP POP SWAP1 POP PUSH1 0x0 DUP13 PUSH20 0xFFFFFFFFFFFFFFFFFFFFFFFFFFFFFFFFFFFFFFFF AND PUSH1 0x64 DUP13 DUP6 PUSH1 0x2 PUSH2 0x1E18 SWAP2 SWAP1 PUSH2 0x3037 JUMP JUMPDEST PUSH2 0x1E22 SWAP2 SWAP1 PUSH2 0x3037 JUMP JUMPDEST PUSH2 0x1E2C SWAP2 SWAP1 PUSH2 0x3006 JUMP JUMPDEST PUSH1 0x40 MLOAD PUSH2 0x1E38 SWAP1 PUSH2 0x2BA1 JUMP JUMPDEST PUSH1 0x0 PUSH1 0x40 MLOAD DUP1 DUP4 SUB DUP2 DUP6 DUP8 GAS CALL SWAP3 POP POP POP RETURNDATASIZE DUP1 PUSH1 0x0 DUP2 EQ PUSH2 0x1E75 JUMPI PUSH1 0x40 MLOAD SWAP2 POP PUSH1 0x1F NOT PUSH1 0x3F RETURNDATASIZE ADD AND DUP3 ADD PUSH1 0x40 MSTORE RETURNDATASIZE DUP3 MSTORE RETURNDATASIZE PUSH1 0x0 PUSH1 0x20 DUP5 ADD RETURNDATACOPY PUSH2 0x1E7A JUMP JUMPDEST PUSH1 0x60 SWAP2 POP JUMPDEST POP POP SWAP1 POP DUP2 DUP1 ISZERO PUSH2 0x1E88 JUMPI POP DUP1 JUMPDEST PUSH2 0x1EC7 JUMPI PUSH1 0x40 MLOAD PUSH32 0x8C379A000000000000000000000000000000000000000000000000000000000 DUP2 MSTORE PUSH1 0x4 ADD PUSH2 0x1EBE SWAP1 PUSH2 0x2DC1 JUMP JUMPDEST PUSH1 0x40 MLOAD DUP1 SWAP2 SUB SWAP1 REVERT JUMPDEST POP POP JUMPDEST DUP1 PUSH1 0x1 PUSH1 0x0 DUP10 PUSH20 0xFFFFFFFFFFFFFFFFFFFFFFFFFFFFFFFFFFFFFFFF AND PUSH20 0xFFFFFFFFFFFFFFFFFFFFFFFFFFFFFFFFFFFFFFFF AND DUP2 MSTORE PUSH1 0x20 ADD SWAP1 DUP2 MSTORE PUSH1 0x20 ADD PUSH1 0x0 KECCAK256 PUSH1 0x3 ADD PUSH1 0x0 DUP3 DUP3 SLOAD PUSH2 0x1F1C SWAP2 SWAP1 PUSH2 0x2F72 JUMP JUMPDEST SWAP3 POP POP DUP2 SWAP1 SSTORE POP PUSH1 0x1 PUSH1 0x0 DUP9 PUSH20 0xFFFFFFFFFFFFFFFFFFFFFFFFFFFFFFFFFFFFFFFF AND PUSH20 0xFFFFFFFFFFFFFFFFFFFFFFFFFFFFFFFFFFFFFFFF AND DUP2 MSTORE PUSH1 0x20 ADD SWAP1 DUP2 MSTORE PUSH1 0x20 ADD PUSH1 0x0 KECCAK256 PUSH1 0x1 ADD PUSH1 0x0 DUP2 SLOAD DUP1 SWAP3 SWAP2 SWAP1 PUSH2 0x1F76 SWAP1 PUSH2 0x3205 JUMP JUMPDEST SWAP2 SWAP1 POP SSTORE POP DUP1 PUSH1 0x1 PUSH1 0x0 DUP9 PUSH20 0xFFFFFFFFFFFFFFFFFFFFFFFFFFFFFFFFFFFFFFFF AND PUSH20 0xFFFFFFFFFFFFFFFFFFFFFFFFFFFFFFFFFFFFFFFF AND DUP2 MSTORE PUSH1 0x20 ADD SWAP1 DUP2 MSTORE PUSH1 0x20 ADD PUSH1 0x0 KECCAK256 PUSH1 0x3 ADD PUSH1 0x0 DUP3 DUP3 SLOAD PUSH2 0x1FCD SWAP2 SWAP1 PUSH2 0x3091 JUMP JUMPDEST SWAP3 POP POP DUP2 SWAP1 SSTORE POP PUSH1 0x1 PUSH1 0x0 DUP8 PUSH20 0xFFFFFFFFFFFFFFFFFFFFFFFFFFFFFFFFFFFFFFFF AND PUSH20 0xFFFFFFFFFFFFFFFFFFFFFFFFFFFFFFFFFFFFFFFF AND DUP2 MSTORE PUSH1 0x20 ADD SWAP1 DUP2 MSTORE PUSH1 0x20 ADD PUSH1 0x0 KECCAK256 PUSH1 0x2 ADD PUSH1 0x0 DUP2 SLOAD DUP1 SWAP3 SWAP2 SWAP1 PUSH2 0x2027 SWAP1 PUSH2 0x3205 JUMP JUMPDEST SWAP2 SWAP1 POP SSTORE POP JUMPDEST DUP7 SWAP8 POP POP POP POP POP POP POP POP SWAP5 SWAP4 POP POP POP POP JUMP JUMPDEST PUSH1 0x40 MLOAD DUP1 PUSH1 0x80 ADD PUSH1 0x40 MSTORE DUP1 PUSH1 0x1 ISZERO ISZERO DUP2 MSTORE PUSH1 0x20 ADD PUSH1 0x0 DUP2 MSTORE PUSH1 0x20 ADD PUSH1 0x0 DUP2 MSTORE PUSH1 0x20 ADD PUSH1 0x0 DUP2 MSTORE POP PUSH1 0x1 PUSH1 0x0 DUP4 PUSH20 0xFFFFFFFFFFFFFFFFFFFFFFFFFFFFFFFFFFFFFFFF AND PUSH20 0xFFFFFFFFFFFFFFFFFFFFFFFFFFFFFFFFFFFFFFFF AND DUP2 MSTORE PUSH1 0x20 ADD SWAP1 DUP2 MSTORE PUSH1 0x20 ADD PUSH1 0x0 KECCAK256 PUSH1 0x0 DUP3 ADD MLOAD DUP2 PUSH1 0x0 ADD PUSH1 0x0 PUSH2 0x100 EXP DUP2 SLOAD DUP2 PUSH1 0xFF MUL NOT AND SWAP1 DUP4 ISZERO ISZERO MUL OR SWAP1 SSTORE POP PUSH1 0x20 DUP3 ADD MLOAD DUP2 PUSH1 0x1 ADD SSTORE PUSH1 0x40 DUP3 ADD MLOAD DUP2 PUSH1 0x2 ADD SSTORE PUSH1 0x60 DUP3 ADD MLOAD DUP2 PUSH1 0x3 ADD SSTORE SWAP1 POP POP POP JUMP JUMPDEST PUSH1 0x40 MLOAD DUP1 PUSH2 0x160 ADD PUSH1 0x40 MSTORE DUP1 DUP7 PUSH20 0xFFFFFFFFFFFFFFFFFFFFFFFFFFFFFFFFFFFFFFFF AND DUP2 MSTORE PUSH1 0x20 ADD PUSH1 0x0 PUSH20 0xFFFFFFFFFFFFFFFFFFFFFFFFFFFFFFFFFFFFFFFF AND DUP2 MSTORE PUSH1 0x20 ADD DUP6 DUP6 DUP1 DUP1 PUSH1 0x1F ADD PUSH1 0x20 DUP1 SWAP2 DIV MUL PUSH1 0x20 ADD PUSH1 0x40 MLOAD SWAP1 DUP2 ADD PUSH1 0x40 MSTORE DUP1 SWAP4 SWAP3 SWAP2 SWAP1 DUP2 DUP2 MSTORE PUSH1 0x20 ADD DUP4 DUP4 DUP1 DUP3 DUP5 CALLDATACOPY PUSH1 0x0 DUP2 DUP5 ADD MSTORE PUSH1 0x1F NOT PUSH1 0x1F DUP3 ADD AND SWAP1 POP DUP1 DUP4 ADD SWAP3 POP POP POP POP POP POP POP DUP2 MSTORE PUSH1 0x20 ADD PUSH1 0x40 MLOAD DUP1 PUSH1 0x20 ADD PUSH1 0x40 MSTORE DUP1 PUSH1 0x0 DUP2 MSTORE POP DUP2 MSTORE PUSH1 0x20 ADD DUP4 DUP2 MSTORE PUSH1 0x20 ADD PUSH1 0x0 DUP1 SHL DUP2 MSTORE PUSH1 0x20 ADD PUSH1 0x0 DUP1 SHL DUP2 MSTORE PUSH1 0x20 ADD PUSH1 0x0 PUSH1 0xFF AND DUP2 MSTORE PUSH1 0x20 ADD PUSH1 0x0 PUSH1 0xFF AND DUP2 MSTORE PUSH1 0x20 ADD PUSH1 0x0 PUSH20 0xFFFFFFFFFFFFFFFFFFFFFFFFFFFFFFFFFFFFFFFF AND DUP2 MSTORE PUSH1 0x20 ADD PUSH1 0x0 PUSH1 0xFF AND DUP2 MSTORE POP PUSH1 0x2 PUSH1 0x0 DUP4 DUP2 MSTORE PUSH1 0x20 ADD SWAP1 DUP2 MSTORE PUSH1 0x20 ADD PUSH1 0x0 KECCAK256 PUSH1 0x0 DUP3 ADD MLOAD DUP2 PUSH1 0x0 ADD PUSH1 0x0 PUSH2 0x100 EXP DUP2 SLOAD DUP2 PUSH20 0xFFFFFFFFFFFFFFFFFFFFFFFFFFFFFFFFFFFFFFFF MUL NOT AND SWAP1 DUP4 PUSH20 0xFFFFFFFFFFFFFFFFFFFFFFFFFFFFFFFFFFFFFFFF AND MUL OR SWAP1 SSTORE POP PUSH1 0x20 DUP3 ADD MLOAD DUP2 PUSH1 0x1 ADD PUSH1 0x0 PUSH2 0x100 EXP DUP2 SLOAD DUP2 PUSH20 0xFFFFFFFFFFFFFFFFFFFFFFFFFFFFFFFFFFFFFFFF MUL NOT AND SWAP1 DUP4 PUSH20 0xFFFFFFFFFFFFFFFFFFFFFFFFFFFFFFFFFFFFFFFF AND MUL OR SWAP1 SSTORE POP PUSH1 0x40 DUP3 ADD MLOAD DUP2 PUSH1 0x2 ADD SWAP1 DUP1 MLOAD SWAP1 PUSH1 0x20 ADD SWAP1 PUSH2 0x229B SWAP3 SWAP2 SWAP1 PUSH2 0x24E8 JUMP JUMPDEST POP PUSH1 0x60 DUP3 ADD MLOAD DUP2 PUSH1 0x3 ADD SWAP1 DUP1 MLOAD SWAP1 PUSH1 0x20 ADD SWAP1 PUSH2 0x22B8 SWAP3 SWAP2 SWAP1 PUSH2 0x24E8 JUMP JUMPDEST POP PUSH1 0x80 DUP3 ADD MLOAD DUP2 PUSH1 0x4 ADD SSTORE PUSH1 0xA0 DUP3 ADD MLOAD DUP2 PUSH1 0x5 ADD SSTORE PUSH1 0xC0 DUP3 ADD MLOAD DUP2 PUSH1 0x6 ADD SSTORE PUSH1 0xE0 DUP3 ADD MLOAD DUP2 PUSH1 0x7 ADD PUSH1 0x0 PUSH2 0x100 EXP DUP2 SLOAD DUP2 PUSH1 0xFF MUL NOT AND SWAP1 DUP4 PUSH1 0xFF AND MUL OR SWAP1 SSTORE POP PUSH2 0x100 DUP3 ADD MLOAD DUP2 PUSH1 0x7 ADD PUSH1 0x1 PUSH2 0x100 EXP DUP2 SLOAD DUP2 PUSH1 0xFF MUL NOT AND SWAP1 DUP4 PUSH1 0xFF AND MUL OR SWAP1 SSTORE POP PUSH2 0x120 DUP3 ADD MLOAD DUP2 PUSH1 0x7 ADD PUSH1 0x2 PUSH2 0x100 EXP DUP2 SLOAD DUP2 PUSH20 0xFFFFFFFFFFFFFFFFFFFFFFFFFFFFFFFFFFFFFFFF MUL NOT AND SWAP1 DUP4 PUSH20 0xFFFFFFFFFFFFFFFFFFFFFFFFFFFFFFFFFFFFFFFF AND MUL OR SWAP1 SSTORE POP PUSH2 0x140 DUP3 ADD MLOAD DUP2 PUSH1 0x7 ADD PUSH1 0x16 PUSH2 0x100 EXP DUP2 SLOAD DUP2 PUSH1 0xFF MUL NOT AND SWAP1 DUP4 PUSH1 0xFF AND MUL OR SWAP1 SSTORE POP SWAP1 POP POP POP POP POP POP POP JUMP JUMPDEST PUSH1 0x0 DUP2 MLOAD SWAP1 POP PUSH1 0x0 PUSH11 0x636F6E736F6C652E6C6F67 SWAP1 POP PUSH1 0x20 DUP4 ADD PUSH1 0x0 DUP1 DUP5 DUP4 DUP6 GAS STATICCALL POP POP POP POP POP JUMP JUMPDEST PUSH1 0x40 MLOAD DUP1 PUSH2 0x160 ADD PUSH1 0x40 MSTORE DUP1 PUSH1 0x0 PUSH20 0xFFFFFFFFFFFFFFFFFFFFFFFFFFFFFFFFFFFFFFFF AND DUP2 MSTORE PUSH1 0x20 ADD PUSH1 0x0 PUSH20 0xFFFFFFFFFFFFFFFFFFFFFFFFFFFFFFFFFFFFFFFF AND DUP2 MSTORE PUSH1 0x20 ADD PUSH1 0x60 DUP2 MSTORE PUSH1 0x20 ADD PUSH1 0x60 DUP2 MSTORE PUSH1 0x20 ADD PUSH1 0x0 DUP2 MSTORE PUSH1 0x20 ADD PUSH1 0x0 DUP1 NOT AND DUP2 MSTORE PUSH1 0x20 ADD PUSH1 0x0 DUP1 NOT AND DUP2 MSTORE PUSH1 0x20 ADD PUSH1 0x0 PUSH1 0xFF AND DUP2 MSTORE PUSH1 0x20 ADD PUSH1 0x0 PUSH1 0xFF AND DUP2 MSTORE PUSH1 0x20 ADD PUSH1 0x0 PUSH20 0xFFFFFFFFFFFFFFFFFFFFFFFFFFFFFFFFFFFFFFFF AND DUP2 MSTORE PUSH1 0x20 ADD PUSH1 0x0 PUSH1 0xFF AND DUP2 MSTORE POP SWAP1 JUMP JUMPDEST DUP3 DUP1 SLOAD PUSH2 0x246E SWAP1 PUSH2 0x31D3 JUMP JUMPDEST SWAP1 PUSH1 0x0 MSTORE PUSH1 0x20 PUSH1 0x0 KECCAK256 SWAP1 PUSH1 0x1F ADD PUSH1 0x20 SWAP1 DIV DUP2 ADD SWAP3 DUP3 PUSH2 0x2490 JUMPI PUSH1 0x0 DUP6 SSTORE PUSH2 0x24D7 JUMP JUMPDEST DUP3 PUSH1 0x1F LT PUSH2 0x24A9 JUMPI DUP1 CALLDATALOAD PUSH1 0xFF NOT AND DUP4 DUP1 ADD OR DUP6 SSTORE PUSH2 0x24D7 JUMP JUMPDEST DUP3 DUP1 ADD PUSH1 0x1 ADD DUP6 SSTORE DUP3 ISZERO PUSH2 0x24D7 JUMPI SWAP2 DUP3 ADD JUMPDEST DUP3 DUP2 GT ISZERO PUSH2 0x24D6 JUMPI DUP3 CALLDATALOAD DUP3 SSTORE SWAP2 PUSH1 0x20 ADD SWAP2 SWAP1 PUSH1 0x1 ADD SWAP1 PUSH2 0x24BB JUMP JUMPDEST JUMPDEST POP SWAP1 POP PUSH2 0x24E4 SWAP2 SWAP1 PUSH2 0x256E JUMP JUMPDEST POP SWAP1 JUMP JUMPDEST DUP3 DUP1 SLOAD PUSH2 0x24F4 SWAP1 PUSH2 0x31D3 JUMP JUMPDEST SWAP1 PUSH1 0x0 MSTORE PUSH1 0x20 PUSH1 0x0 KECCAK256 SWAP1 PUSH1 0x1F ADD PUSH1 0x20 SWAP1 DIV DUP2 ADD SWAP3 DUP3 PUSH2 0x2516 JUMPI PUSH1 0x0 DUP6 SSTORE PUSH2 0x255D JUMP JUMPDEST DUP3 PUSH1 0x1F LT PUSH2 0x252F JUMPI DUP1 MLOAD PUSH1 0xFF NOT AND DUP4 DUP1 ADD OR DUP6 SSTORE PUSH2 0x255D JUMP JUMPDEST DUP3 DUP1 ADD PUSH1 0x1 ADD DUP6 SSTORE DUP3 ISZERO PUSH2 0x255D JUMPI SWAP2 DUP3 ADD JUMPDEST DUP3 DUP2 GT ISZERO PUSH2 0x255C JUMPI DUP3 MLOAD DUP3 SSTORE SWAP2 PUSH1 0x20 ADD SWAP2 SWAP1 PUSH1 0x1 ADD SWAP1 PUSH2 0x2541 JUMP JUMPDEST JUMPDEST POP SWAP1 POP PUSH2 0x256A SWAP2 SWAP1 PUSH2 0x256E JUMP JUMPDEST POP SWAP1 JUMP JUMPDEST JUMPDEST DUP1 DUP3 GT ISZERO PUSH2 0x2587 JUMPI PUSH1 0x0 DUP2 PUSH1 0x0 SWAP1 SSTORE POP PUSH1 0x1 ADD PUSH2 0x256F JUMP JUMPDEST POP SWAP1 JUMP JUMPDEST PUSH1 0x0 DUP2 CALLDATALOAD SWAP1 POP PUSH2 0x259A DUP2 PUSH2 0x360A JUMP JUMPDEST SWAP3 SWAP2 POP POP JUMP JUMPDEST PUSH1 0x0 DUP2 CALLDATALOAD SWAP1 POP PUSH2 0x25AF DUP2 PUSH2 0x3621 JUMP JUMPDEST SWAP3 SWAP2 POP POP JUMP JUMPDEST PUSH1 0x0 DUP1 DUP4 PUSH1 0x1F DUP5 ADD SLT PUSH2 0x25CB JUMPI PUSH2 0x25CA PUSH2 0x332B JUMP JUMPDEST JUMPDEST DUP3 CALLDATALOAD SWAP1 POP PUSH8 0xFFFFFFFFFFFFFFFF DUP2 GT ISZERO PUSH2 0x25E8 JUMPI PUSH2 0x25E7 PUSH2 0x3326 JUMP JUMPDEST JUMPDEST PUSH1 0x20 DUP4 ADD SWAP2 POP DUP4 PUSH1 0x1 DUP3 MUL DUP4 ADD GT ISZERO PUSH2 0x2604 JUMPI PUSH2 0x2603 PUSH2 0x3330 JUMP JUMPDEST JUMPDEST SWAP3 POP SWAP3 SWAP1 POP JUMP JUMPDEST PUSH1 0x0 DUP2 CALLDATALOAD SWAP1 POP PUSH2 0x261A DUP2 PUSH2 0x3638 JUMP JUMPDEST SWAP3 SWAP2 POP POP JUMP JUMPDEST PUSH1 0x0 DUP2 CALLDATALOAD SWAP1 POP PUSH2 0x262F DUP2 PUSH2 0x364F JUMP JUMPDEST SWAP3 SWAP2 POP POP JUMP JUMPDEST PUSH1 0x0 PUSH1 0x20 DUP3 DUP5 SUB SLT ISZERO PUSH2 0x264B JUMPI PUSH2 0x264A PUSH2 0x333A JUMP JUMPDEST JUMPDEST PUSH1 0x0 PUSH2 0x2659 DUP5 DUP3 DUP6 ADD PUSH2 0x258B JUMP JUMPDEST SWAP2 POP POP SWAP3 SWAP2 POP POP JUMP JUMPDEST PUSH1 0x0 PUSH1 0x20 DUP3 DUP5 SUB SLT ISZERO PUSH2 0x2678 JUMPI PUSH2 0x2677 PUSH2 0x333A JUMP JUMPDEST JUMPDEST PUSH1 0x0 PUSH2 0x2686 DUP5 DUP3 DUP6 ADD PUSH2 0x25A0 JUMP JUMPDEST SWAP2 POP POP SWAP3 SWAP2 POP POP JUMP JUMPDEST PUSH1 0x0 DUP1 PUSH1 0x0 DUP1 PUSH1 0x60 DUP6 DUP8 SUB SLT ISZERO PUSH2 0x26A9 JUMPI PUSH2 0x26A8 PUSH2 0x333A JUMP JUMPDEST JUMPDEST PUSH1 0x0 PUSH2 0x26B7 DUP8 DUP3 DUP9 ADD PUSH2 0x25A0 JUMP JUMPDEST SWAP5 POP POP PUSH1 0x20 PUSH2 0x26C8 DUP8 DUP3 DUP9 ADD PUSH2 0x25A0 JUMP JUMPDEST SWAP4 POP POP PUSH1 0x40 DUP6 ADD CALLDATALOAD PUSH8 0xFFFFFFFFFFFFFFFF DUP2 GT ISZERO PUSH2 0x26E9 JUMPI PUSH2 0x26E8 PUSH2 0x3335 JUMP JUMPDEST JUMPDEST PUSH2 0x26F5 DUP8 DUP3 DUP9 ADD PUSH2 0x25B5 JUMP JUMPDEST SWAP3 POP SWAP3 POP POP SWAP3 SWAP6 SWAP2 SWAP5 POP SWAP3 POP JUMP JUMPDEST PUSH1 0x0 DUP1 PUSH1 0x0 DUP1 PUSH1 0x0 DUP1 PUSH1 0xC0 DUP8 DUP10 SUB SLT ISZERO PUSH2 0x2720 JUMPI PUSH2 0x271F PUSH2 0x333A JUMP JUMPDEST JUMPDEST PUSH1 0x0 PUSH2 0x272E DUP10 DUP3 DUP11 ADD PUSH2 0x25A0 JUMP JUMPDEST SWAP7 POP POP PUSH1 0x20 PUSH2 0x273F DUP10 DUP3 DUP11 ADD PUSH2 0x2620 JUMP JUMPDEST SWAP6 POP POP PUSH1 0x40 PUSH2 0x2750 DUP10 DUP3 DUP11 ADD PUSH2 0x260B JUMP JUMPDEST SWAP5 POP POP PUSH1 0x60 PUSH2 0x2761 DUP10 DUP3 DUP11 ADD PUSH2 0x258B JUMP JUMPDEST SWAP4 POP POP PUSH1 0x80 PUSH2 0x2772 DUP10 DUP3 DUP11 ADD PUSH2 0x260B JUMP JUMPDEST SWAP3 POP POP PUSH1 0xA0 PUSH2 0x2783 DUP10 DUP3 DUP11 ADD PUSH2 0x260B JUMP JUMPDEST SWAP2 POP POP SWAP3 SWAP6 POP SWAP3 SWAP6 POP SWAP3 SWAP6 JUMP JUMPDEST PUSH2 0x2799 DUP2 PUSH2 0x3137 JUMP JUMPDEST DUP3 MSTORE POP POP JUMP JUMPDEST PUSH2 0x27A8 DUP2 PUSH2 0x3137 JUMP JUMPDEST DUP3 MSTORE POP POP JUMP JUMPDEST PUSH2 0x27B7 DUP2 PUSH2 0x3125 JUMP JUMPDEST DUP3 MSTORE POP POP JUMP JUMPDEST PUSH2 0x27C6 DUP2 PUSH2 0x3125 JUMP JUMPDEST DUP3 MSTORE POP POP JUMP JUMPDEST PUSH2 0x27D5 DUP2 PUSH2 0x3149 JUMP JUMPDEST DUP3 MSTORE POP POP JUMP JUMPDEST PUSH2 0x27E4 DUP2 PUSH2 0x3155 JUMP JUMPDEST DUP3 MSTORE POP POP JUMP JUMPDEST PUSH2 0x27F3 DUP2 PUSH2 0x3155 JUMP JUMPDEST DUP3 MSTORE POP POP JUMP JUMPDEST PUSH2 0x2802 DUP2 PUSH2 0x315F JUMP JUMPDEST DUP3 MSTORE POP POP JUMP JUMPDEST PUSH1 0x0 PUSH2 0x2813 DUP3 PUSH2 0x2F3A JUMP JUMPDEST PUSH2 0x281D DUP2 DUP6 PUSH2 0x2F50 JUMP JUMPDEST SWAP4 POP PUSH2 0x282D DUP2 DUP6 PUSH1 0x20 DUP7 ADD PUSH2 0x31A0 JUMP JUMPDEST PUSH2 0x2836 DUP2 PUSH2 0x333F JUMP JUMPDEST DUP5 ADD SWAP2 POP POP SWAP3 SWAP2 POP POP JUMP JUMPDEST PUSH1 0x0 PUSH2 0x284C DUP3 PUSH2 0x2F3A JUMP JUMPDEST PUSH2 0x2856 DUP2 DUP6 PUSH2 0x2F61 JUMP JUMPDEST SWAP4 POP PUSH2 0x2866 DUP2 DUP6 PUSH1 0x20 DUP7 ADD PUSH2 0x31A0 JUMP JUMPDEST PUSH2 0x286F DUP2 PUSH2 0x333F JUMP JUMPDEST DUP5 ADD SWAP2 POP POP SWAP3 SWAP2 POP POP JUMP JUMPDEST PUSH1 0x0 PUSH2 0x2887 PUSH1 0x25 DUP4 PUSH2 0x2F61 JUMP JUMPDEST SWAP2 POP PUSH2 0x2892 DUP3 PUSH2 0x335D JUMP JUMPDEST PUSH1 0x40 DUP3 ADD SWAP1 POP SWAP2 SWAP1 POP JUMP JUMPDEST PUSH1 0x0 PUSH2 0x28AA PUSH1 0x29 DUP4 PUSH2 0x2F61 JUMP JUMPDEST SWAP2 POP PUSH2 0x28B5 DUP3 PUSH2 0x33AC JUMP JUMPDEST PUSH1 0x40 DUP3 ADD SWAP1 POP SWAP2 SWAP1 POP JUMP JUMPDEST PUSH1 0x0 PUSH2 0x28CD PUSH1 0x30 DUP4 PUSH2 0x2F61 JUMP JUMPDEST SWAP2 POP PUSH2 0x28D8 DUP3 PUSH2 0x33FB JUMP JUMPDEST PUSH1 0x40 DUP3 ADD SWAP1 POP SWAP2 SWAP1 POP JUMP JUMPDEST PUSH1 0x0 PUSH2 0x28F0 PUSH1 0x14 DUP4 PUSH2 0x2F61 JUMP JUMPDEST SWAP2 POP PUSH2 0x28FB DUP3 PUSH2 0x344A JUMP JUMPDEST PUSH1 0x20 DUP3 ADD SWAP1 POP SWAP2 SWAP1 POP JUMP JUMPDEST PUSH1 0x0 PUSH2 0x2913 PUSH1 0x1A DUP4 PUSH2 0x2F61 JUMP JUMPDEST SWAP2 POP PUSH2 0x291E DUP3 PUSH2 0x3473 JUMP JUMPDEST PUSH1 0x20 DUP3 ADD SWAP1 POP SWAP2 SWAP1 POP JUMP JUMPDEST PUSH1 0x0 PUSH2 0x2936 PUSH1 0x1C DUP4 PUSH2 0x2F61 JUMP JUMPDEST SWAP2 POP PUSH2 0x2941 DUP3 PUSH2 0x349C JUMP JUMPDEST PUSH1 0x20 DUP3 ADD SWAP1 POP SWAP2 SWAP1 POP JUMP JUMPDEST PUSH1 0x0 PUSH2 0x2959 PUSH1 0x25 DUP4 PUSH2 0x2F61 JUMP JUMPDEST SWAP2 POP PUSH2 0x2964 DUP3 PUSH2 0x34C5 JUMP JUMPDEST PUSH1 0x40 DUP3 ADD SWAP1 POP SWAP2 SWAP1 POP JUMP JUMPDEST PUSH1 0x0 PUSH2 0x297C PUSH1 0x10 DUP4 PUSH2 0x2F61 JUMP JUMPDEST SWAP2 POP PUSH2 0x2987 DUP3 PUSH2 0x3514 JUMP JUMPDEST PUSH1 0x20 DUP3 ADD SWAP1 POP SWAP2 SWAP1 POP JUMP JUMPDEST PUSH1 0x0 PUSH2 0x299F PUSH1 0x15 DUP4 PUSH2 0x2F61 JUMP JUMPDEST SWAP2 POP PUSH2 0x29AA DUP3 PUSH2 0x353D JUMP JUMPDEST PUSH1 0x20 DUP3 ADD SWAP1 POP SWAP2 SWAP1 POP JUMP JUMPDEST PUSH1 0x0 PUSH2 0x29C2 PUSH1 0x1E DUP4 PUSH2 0x2F61 JUMP JUMPDEST SWAP2 POP PUSH2 0x29CD DUP3 PUSH2 0x3566 JUMP JUMPDEST PUSH1 0x20 DUP3 ADD SWAP1 POP SWAP2 SWAP1 POP JUMP JUMPDEST PUSH1 0x0 PUSH2 0x29E5 PUSH1 0x16 DUP4 PUSH2 0x2F61 JUMP JUMPDEST SWAP2 POP PUSH2 0x29F0 DUP3 PUSH2 0x358F JUMP JUMPDEST PUSH1 0x20 DUP3 ADD SWAP1 POP SWAP2 SWAP1 POP JUMP JUMPDEST PUSH1 0x0 PUSH2 0x2A08 PUSH1 0x0 DUP4 PUSH2 0x2F45 JUMP JUMPDEST SWAP2 POP PUSH2 0x2A13 DUP3 PUSH2 0x35B8 JUMP JUMPDEST PUSH1 0x0 DUP3 ADD SWAP1 POP SWAP2 SWAP1 POP JUMP JUMPDEST PUSH1 0x0 PUSH2 0x2A2B PUSH1 0x21 DUP4 PUSH2 0x2F61 JUMP JUMPDEST SWAP2 POP PUSH2 0x2A36 DUP3 PUSH2 0x35BB JUMP JUMPDEST PUSH1 0x40 DUP3 ADD SWAP1 POP SWAP2 SWAP1 POP JUMP JUMPDEST PUSH1 0x0 PUSH2 0x160 DUP4 ADD PUSH1 0x0 DUP4 ADD MLOAD PUSH2 0x2A5A PUSH1 0x0 DUP7 ADD DUP3 PUSH2 0x2790 JUMP JUMPDEST POP PUSH1 0x20 DUP4 ADD MLOAD PUSH2 0x2A6D PUSH1 0x20 DUP7 ADD DUP3 PUSH2 0x2790 JUMP JUMPDEST POP PUSH1 0x40 DUP4 ADD MLOAD DUP5 DUP3 SUB PUSH1 0x40 DUP7 ADD MSTORE PUSH2 0x2A85 DUP3 DUP3 PUSH2 0x2808 JUMP JUMPDEST SWAP2 POP POP PUSH1 0x60 DUP4 ADD MLOAD DUP5 DUP3 SUB PUSH1 0x60 DUP7 ADD MSTORE PUSH2 0x2A9F DUP3 DUP3 PUSH2 0x2808 JUMP JUMPDEST SWAP2 POP POP PUSH1 0x80 DUP4 ADD MLOAD PUSH2 0x2AB4 PUSH1 0x80 DUP7 ADD DUP3 PUSH2 0x2B37 JUMP JUMPDEST POP PUSH1 0xA0 DUP4 ADD MLOAD PUSH2 0x2AC7 PUSH1 0xA0 DUP7 ADD DUP3 PUSH2 0x27DB JUMP JUMPDEST POP PUSH1 0xC0 DUP4 ADD MLOAD PUSH2 0x2ADA PUSH1 0xC0 DUP7 ADD DUP3 PUSH2 0x27DB JUMP JUMPDEST POP PUSH1 0xE0 DUP4 ADD MLOAD PUSH2 0x2AED PUSH1 0xE0 DUP7 ADD DUP3 PUSH2 0x2B6C JUMP JUMPDEST POP PUSH2 0x100 DUP4 ADD MLOAD PUSH2 0x2B02 PUSH2 0x100 DUP7 ADD DUP3 PUSH2 0x2B6C JUMP JUMPDEST POP PUSH2 0x120 DUP4 ADD MLOAD PUSH2 0x2B17 PUSH2 0x120 DUP7 ADD DUP3 PUSH2 0x27AE JUMP JUMPDEST POP PUSH2 0x140 DUP4 ADD MLOAD PUSH2 0x2B2C PUSH2 0x140 DUP7 ADD DUP3 PUSH2 0x2B6C JUMP JUMPDEST POP DUP1 SWAP2 POP POP SWAP3 SWAP2 POP POP JUMP JUMPDEST PUSH2 0x2B40 DUP2 PUSH2 0x3189 JUMP JUMPDEST DUP3 MSTORE POP POP JUMP JUMPDEST PUSH2 0x2B4F DUP2 PUSH2 0x3189 JUMP JUMPDEST DUP3 MSTORE POP POP JUMP JUMPDEST PUSH2 0x2B66 PUSH2 0x2B61 DUP3 PUSH2 0x3189 JUMP JUMPDEST PUSH2 0x324E JUMP JUMPDEST DUP3 MSTORE POP POP JUMP JUMPDEST PUSH2 0x2B75 DUP2 PUSH2 0x3193 JUMP JUMPDEST DUP3 MSTORE POP POP JUMP JUMPDEST PUSH2 0x2B84 DUP2 PUSH2 0x3193 JUMP JUMPDEST DUP3 MSTORE POP POP JUMP JUMPDEST PUSH2 0x2B9B PUSH2 0x2B96 DUP3 PUSH2 0x3193 JUMP JUMPDEST PUSH2 0x3258 JUMP JUMPDEST DUP3 MSTORE POP POP JUMP JUMPDEST PUSH1 0x0 PUSH2 0x2BAC DUP3 PUSH2 0x29FB JUMP JUMPDEST SWAP2 POP DUP2 SWAP1 POP SWAP2 SWAP1 POP JUMP JUMPDEST PUSH1 0x0 PUSH2 0x2BC2 DUP3 DUP6 PUSH2 0x2B55 JUMP JUMPDEST PUSH1 0x20 DUP3 ADD SWAP2 POP PUSH2 0x2BD2 DUP3 DUP5 PUSH2 0x2B8A JUMP JUMPDEST PUSH1 0x1 DUP3 ADD SWAP2 POP DUP2 SWAP1 POP SWAP4 SWAP3 POP POP POP JUMP JUMPDEST PUSH1 0x0 PUSH1 0x20 DUP3 ADD SWAP1 POP PUSH2 0x2BF7 PUSH1 0x0 DUP4 ADD DUP5 PUSH2 0x279F JUMP JUMPDEST SWAP3 SWAP2 POP POP JUMP JUMPDEST PUSH1 0x0 PUSH2 0x160 DUP3 ADD SWAP1 POP PUSH2 0x2C13 PUSH1 0x0 DUP4 ADD DUP15 PUSH2 0x279F JUMP JUMPDEST PUSH2 0x2C20 PUSH1 0x20 DUP4 ADD DUP14 PUSH2 0x279F JUMP JUMPDEST DUP2 DUP2 SUB PUSH1 0x40 DUP4 ADD MSTORE PUSH2 0x2C32 DUP2 DUP13 PUSH2 0x2841 JUMP JUMPDEST SWAP1 POP DUP2 DUP2 SUB PUSH1 0x60 DUP4 ADD MSTORE PUSH2 0x2C46 DUP2 DUP12 PUSH2 0x2841 JUMP JUMPDEST SWAP1 POP PUSH2 0x2C55 PUSH1 0x80 DUP4 ADD DUP11 PUSH2 0x2B46 JUMP JUMPDEST PUSH2 0x2C62 PUSH1 0xA0 DUP4 ADD DUP10 PUSH2 0x27EA JUMP JUMPDEST PUSH2 0x2C6F PUSH1 0xC0 DUP4 ADD DUP9 PUSH2 0x27EA JUMP JUMPDEST PUSH2 0x2C7C PUSH1 0xE0 DUP4 ADD DUP8 PUSH2 0x2B7B JUMP JUMPDEST PUSH2 0x2C8A PUSH2 0x100 DUP4 ADD DUP7 PUSH2 0x2B7B JUMP JUMPDEST PUSH2 0x2C98 PUSH2 0x120 DUP4 ADD DUP6 PUSH2 0x27BD JUMP JUMPDEST PUSH2 0x2CA6 PUSH2 0x140 DUP4 ADD DUP5 PUSH2 0x2B7B JUMP JUMPDEST SWAP13 SWAP12 POP POP POP POP POP POP POP POP POP POP POP POP JUMP JUMPDEST PUSH1 0x0 PUSH1 0x80 DUP3 ADD SWAP1 POP PUSH2 0x2CCB PUSH1 0x0 DUP4 ADD DUP8 PUSH2 0x27CC JUMP JUMPDEST PUSH2 0x2CD8 PUSH1 0x20 DUP4 ADD DUP7 PUSH2 0x2B46 JUMP JUMPDEST PUSH2 0x2CE5 PUSH1 0x40 DUP4 ADD DUP6 PUSH2 0x2B46 JUMP JUMPDEST PUSH2 0x2CF2 PUSH1 0x60 DUP4 ADD DUP5 PUSH2 0x27F9 JUMP JUMPDEST SWAP6 SWAP5 POP POP POP POP POP JUMP JUMPDEST PUSH1 0x0 PUSH1 0x20 DUP3 ADD SWAP1 POP PUSH2 0x2D10 PUSH1 0x0 DUP4 ADD DUP5 PUSH2 0x27EA JUMP JUMPDEST SWAP3 SWAP2 POP POP JUMP JUMPDEST PUSH1 0x0 PUSH1 0x40 DUP3 ADD SWAP1 POP PUSH2 0x2D2B PUSH1 0x0 DUP4 ADD DUP6 PUSH2 0x27EA JUMP JUMPDEST PUSH2 0x2D38 PUSH1 0x20 DUP4 ADD DUP5 PUSH2 0x27BD JUMP JUMPDEST SWAP4 SWAP3 POP POP POP JUMP JUMPDEST PUSH1 0x0 PUSH1 0x20 DUP3 ADD SWAP1 POP DUP2 DUP2 SUB PUSH1 0x0 DUP4 ADD MSTORE PUSH2 0x2D59 DUP2 DUP5 PUSH2 0x2841 JUMP JUMPDEST SWAP1 POP SWAP3 SWAP2 POP POP JUMP JUMPDEST PUSH1 0x0 PUSH1 0x20 DUP3 ADD SWAP1 POP DUP2 DUP2 SUB PUSH1 0x0 DUP4 ADD MSTORE PUSH2 0x2D7A DUP2 PUSH2 0x287A JUMP JUMPDEST SWAP1 POP SWAP2 SWAP1 POP JUMP JUMPDEST PUSH1 0x0 PUSH1 0x20 DUP3 ADD SWAP1 POP DUP2 DUP2 SUB PUSH1 0x0 DUP4 ADD MSTORE PUSH2 0x2D9A DUP2 PUSH2 0x289D JUMP JUMPDEST SWAP1 POP SWAP2 SWAP1 POP JUMP JUMPDEST PUSH1 0x0 PUSH1 0x20 DUP3 ADD SWAP1 POP DUP2 DUP2 SUB PUSH1 0x0 DUP4 ADD MSTORE PUSH2 0x2DBA DUP2 PUSH2 0x28C0 JUMP JUMPDEST SWAP1 POP SWAP2 SWAP1 POP JUMP JUMPDEST PUSH1 0x0 PUSH1 0x20 DUP3 ADD SWAP1 POP DUP2 DUP2 SUB PUSH1 0x0 DUP4 ADD MSTORE PUSH2 0x2DDA DUP2 PUSH2 0x28E3 JUMP JUMPDEST SWAP1 POP SWAP2 SWAP1 POP JUMP JUMPDEST PUSH1 0x0 PUSH1 0x20 DUP3 ADD SWAP1 POP DUP2 DUP2 SUB PUSH1 0x0 DUP4 ADD MSTORE PUSH2 0x2DFA DUP2 PUSH2 0x2906 JUMP JUMPDEST SWAP1 POP SWAP2 SWAP1 POP JUMP JUMPDEST PUSH1 0x0 PUSH1 0x20 DUP3 ADD SWAP1 POP DUP2 DUP2 SUB PUSH1 0x0 DUP4 ADD MSTORE PUSH2 0x2E1A DUP2 PUSH2 0x2929 JUMP JUMPDEST SWAP1 POP SWAP2 SWAP1 POP JUMP JUMPDEST PUSH1 0x0 PUSH1 0x20 DUP3 ADD SWAP1 POP DUP2 DUP2 SUB PUSH1 0x0 DUP4 ADD MSTORE PUSH2 0x2E3A DUP2 PUSH2 0x294C JUMP JUMPDEST SWAP1 POP SWAP2 SWAP1 POP JUMP JUMPDEST PUSH1 0x0 PUSH1 0x20 DUP3 ADD SWAP1 POP DUP2 DUP2 SUB PUSH1 0x0 DUP4 ADD MSTORE PUSH2 0x2E5A DUP2 PUSH2 0x296F JUMP JUMPDEST SWAP1 POP SWAP2 SWAP1 POP JUMP JUMPDEST PUSH1 0x0 PUSH1 0x20 DUP3 ADD SWAP1 POP DUP2 DUP2 SUB PUSH1 0x0 DUP4 ADD MSTORE PUSH2 0x2E7A DUP2 PUSH2 0x2992 JUMP JUMPDEST SWAP1 POP SWAP2 SWAP1 POP JUMP JUMPDEST PUSH1 0x0 PUSH1 0x20 DUP3 ADD SWAP1 POP DUP2 DUP2 SUB PUSH1 0x0 DUP4 ADD MSTORE PUSH2 0x2E9A DUP2 PUSH2 0x29B5 JUMP JUMPDEST SWAP1 POP SWAP2 SWAP1 POP JUMP JUMPDEST PUSH1 0x0 PUSH1 0x20 DUP3 ADD SWAP1 POP DUP2 DUP2 SUB PUSH1 0x0 DUP4 ADD MSTORE PUSH2 0x2EBA DUP2 PUSH2 0x29D8 JUMP JUMPDEST SWAP1 POP SWAP2 SWAP1 POP JUMP JUMPDEST PUSH1 0x0 PUSH1 0x20 DUP3 ADD SWAP1 POP DUP2 DUP2 SUB PUSH1 0x0 DUP4 ADD MSTORE PUSH2 0x2EDA DUP2 PUSH2 0x2A1E JUMP JUMPDEST SWAP1 POP SWAP2 SWAP1 POP JUMP JUMPDEST PUSH1 0x0 PUSH1 0x20 DUP3 ADD SWAP1 POP DUP2 DUP2 SUB PUSH1 0x0 DUP4 ADD MSTORE PUSH2 0x2EFB DUP2 DUP5 PUSH2 0x2A41 JUMP JUMPDEST SWAP1 POP SWAP3 SWAP2 POP POP JUMP JUMPDEST PUSH1 0x0 PUSH1 0x60 DUP3 ADD SWAP1 POP PUSH2 0x2F18 PUSH1 0x0 DUP4 ADD DUP7 PUSH2 0x2B46 JUMP JUMPDEST PUSH2 0x2F25 PUSH1 0x20 DUP4 ADD DUP6 PUSH2 0x2B46 JUMP JUMPDEST PUSH2 0x2F32 PUSH1 0x40 DUP4 ADD DUP5 PUSH2 0x27F9 JUMP JUMPDEST SWAP5 SWAP4 POP POP POP POP JUMP JUMPDEST PUSH1 0x0 DUP2 MLOAD SWAP1 POP SWAP2 SWAP1 POP JUMP JUMPDEST PUSH1 0x0 DUP2 SWAP1 POP SWAP3 SWAP2 POP POP JUMP JUMPDEST PUSH1 0x0 DUP3 DUP3 MSTORE PUSH1 0x20 DUP3 ADD SWAP1 POP SWAP3 SWAP2 POP POP JUMP JUMPDEST PUSH1 0x0 DUP3 DUP3 MSTORE PUSH1 0x20 DUP3 ADD SWAP1 POP SWAP3 SWAP2 POP POP JUMP JUMPDEST PUSH1 0x0 PUSH2 0x2F7D DUP3 PUSH2 0x315F JUMP JUMPDEST SWAP2 POP PUSH2 0x2F88 DUP4 PUSH2 0x315F JUMP JUMPDEST SWAP3 POP DUP2 PUSH32 0x7FFFFFFFFFFFFFFFFFFFFFFFFFFFFFFFFFFFFFFFFFFFFFFFFFFFFFFFFFFFFFFF SUB DUP4 SGT PUSH1 0x0 DUP4 SLT ISZERO AND ISZERO PUSH2 0x2FC3 JUMPI PUSH2 0x2FC2 PUSH2 0x3299 JUMP JUMPDEST JUMPDEST DUP2 PUSH32 0x8000000000000000000000000000000000000000000000000000000000000000 SUB DUP4 SLT PUSH1 0x0 DUP4 SLT AND ISZERO PUSH2 0x2FFB JUMPI PUSH2 0x2FFA PUSH2 0x3299 JUMP JUMPDEST JUMPDEST DUP3 DUP3 ADD SWAP1 POP SWAP3 SWAP2 POP POP JUMP JUMPDEST PUSH1 0x0 PUSH2 0x3011 DUP3 PUSH2 0x3189 JUMP JUMPDEST SWAP2 POP PUSH2 0x301C DUP4 PUSH2 0x3189 JUMP JUMPDEST SWAP3 POP DUP3 PUSH2 0x302C JUMPI PUSH2 0x302B PUSH2 0x32C8 JUMP JUMPDEST JUMPDEST DUP3 DUP3 DIV SWAP1 POP SWAP3 SWAP2 POP POP JUMP JUMPDEST PUSH1 0x0 PUSH2 0x3042 DUP3 PUSH2 0x3189 JUMP JUMPDEST SWAP2 POP PUSH2 0x304D DUP4 PUSH2 0x3189 JUMP JUMPDEST SWAP3 POP DUP2 PUSH32 0xFFFFFFFFFFFFFFFFFFFFFFFFFFFFFFFFFFFFFFFFFFFFFFFFFFFFFFFFFFFFFFFF DIV DUP4 GT DUP3 ISZERO ISZERO AND ISZERO PUSH2 0x3086 JUMPI PUSH2 0x3085 PUSH2 0x3299 JUMP JUMPDEST JUMPDEST DUP3 DUP3 MUL SWAP1 POP SWAP3 SWAP2 POP POP JUMP JUMPDEST PUSH1 0x0 PUSH2 0x309C DUP3 PUSH2 0x315F JUMP JUMPDEST SWAP2 POP PUSH2 0x30A7 DUP4 PUSH2 0x315F JUMP JUMPDEST SWAP3 POP DUP3 PUSH32 0x8000000000000000000000000000000000000000000000000000000000000000 ADD DUP3 SLT PUSH1 0x0 DUP5 SLT ISZERO AND ISZERO PUSH2 0x30E2 JUMPI PUSH2 0x30E1 PUSH2 0x3299 JUMP JUMPDEST JUMPDEST DUP3 PUSH32 0x7FFFFFFFFFFFFFFFFFFFFFFFFFFFFFFFFFFFFFFFFFFFFFFFFFFFFFFFFFFFFFFF ADD DUP3 SGT PUSH1 0x0 DUP5 SLT AND ISZERO PUSH2 0x311A JUMPI PUSH2 0x3119 PUSH2 0x3299 JUMP JUMPDEST JUMPDEST DUP3 DUP3 SUB SWAP1 POP SWAP3 SWAP2 POP POP JUMP JUMPDEST PUSH1 0x0 PUSH2 0x3130 DUP3 PUSH2 0x3169 JUMP JUMPDEST SWAP1 POP SWAP2 SWAP1 POP JUMP JUMPDEST PUSH1 0x0 PUSH2 0x3142 DUP3 PUSH2 0x3169 JUMP JUMPDEST SWAP1 POP SWAP2 SWAP1 POP JUMP JUMPDEST PUSH1 0x0 DUP2 ISZERO ISZERO SWAP1 POP SWAP2 SWAP1 POP JUMP JUMPDEST PUSH1 0x0 DUP2 SWAP1 POP SWAP2 SWAP1 POP JUMP JUMPDEST PUSH1 0x0 DUP2 SWAP1 POP SWAP2 SWAP1 POP JUMP JUMPDEST PUSH1 0x0 PUSH20 0xFFFFFFFFFFFFFFFFFFFFFFFFFFFFFFFFFFFFFFFF DUP3 AND SWAP1 POP SWAP2 SWAP1 POP JUMP JUMPDEST PUSH1 0x0 DUP2 SWAP1 POP SWAP2 SWAP1 POP JUMP JUMPDEST PUSH1 0x0 PUSH1 0xFF DUP3 AND SWAP1 POP SWAP2 SWAP1 POP JUMP JUMPDEST PUSH1 0x0 JUMPDEST DUP4 DUP2 LT ISZERO PUSH2 0x31BE JUMPI DUP1 DUP3 ADD MLOAD DUP2 DUP5 ADD MSTORE PUSH1 0x20 DUP2 ADD SWAP1 POP PUSH2 0x31A3 JUMP JUMPDEST DUP4 DUP2 GT ISZERO PUSH2 0x31CD JUMPI PUSH1 0x0 DUP5 DUP5 ADD MSTORE JUMPDEST POP POP POP POP JUMP JUMPDEST PUSH1 0x0 PUSH1 0x2 DUP3 DIV SWAP1 POP PUSH1 0x1 DUP3 AND DUP1 PUSH2 0x31EB JUMPI PUSH1 0x7F DUP3 AND SWAP2 POP JUMPDEST PUSH1 0x20 DUP3 LT DUP2 EQ ISZERO PUSH2 0x31FF JUMPI PUSH2 0x31FE PUSH2 0x32F7 JUMP JUMPDEST JUMPDEST POP SWAP2 SWAP1 POP JUMP JUMPDEST PUSH1 0x0 PUSH2 0x3210 DUP3 PUSH2 0x3189 JUMP JUMPDEST SWAP2 POP PUSH32 0xFFFFFFFFFFFFFFFFFFFFFFFFFFFFFFFFFFFFFFFFFFFFFFFFFFFFFFFFFFFFFFFF DUP3 EQ ISZERO PUSH2 0x3243 JUMPI PUSH2 0x3242 PUSH2 0x3299 JUMP JUMPDEST JUMPDEST PUSH1 0x1 DUP3 ADD SWAP1 POP SWAP2 SWAP1 POP JUMP JUMPDEST PUSH1 0x0 DUP2 SWAP1 POP SWAP2 SWAP1 POP JUMP JUMPDEST PUSH1 0x0 PUSH2 0x3263 DUP3 PUSH2 0x3350 JUMP JUMPDEST SWAP1 POP SWAP2 SWAP1 POP JUMP JUMPDEST PUSH32 0x4E487B7100000000000000000000000000000000000000000000000000000000 PUSH1 0x0 MSTORE PUSH1 0x1 PUSH1 0x4 MSTORE PUSH1 0x24 PUSH1 0x0 REVERT JUMPDEST PUSH32 0x4E487B7100000000000000000000000000000000000000000000000000000000 PUSH1 0x0 MSTORE PUSH1 0x11 PUSH1 0x4 MSTORE PUSH1 0x24 PUSH1 0x0 REVERT JUMPDEST PUSH32 0x4E487B7100000000000000000000000000000000000000000000000000000000 PUSH1 0x0 MSTORE PUSH1 0x12 PUSH1 0x4 MSTORE PUSH1 0x24 PUSH1 0x0 REVERT JUMPDEST PUSH32 0x4E487B7100000000000000000000000000000000000000000000000000000000 PUSH1 0x0 MSTORE PUSH1 0x22 PUSH1 0x4 MSTORE PUSH1 0x24 PUSH1 0x0 REVERT JUMPDEST PUSH1 0x0 DUP1 REVERT JUMPDEST PUSH1 0x0 DUP1 REVERT JUMPDEST PUSH1 0x0 DUP1 REVERT JUMPDEST PUSH1 0x0 DUP1 REVERT JUMPDEST PUSH1 0x0 DUP1 REVERT JUMPDEST PUSH1 0x0 PUSH1 0x1F NOT PUSH1 0x1F DUP4 ADD AND SWAP1 POP SWAP2 SWAP1 POP JUMP JUMPDEST PUSH1 0x0 DUP2 PUSH1 0xF8 SHL SWAP1 POP SWAP2 SWAP1 POP JUMP JUMPDEST PUSH32 0x596F75206861766520616C726561647920766572696669656420796F75722063 PUSH1 0x0 DUP3 ADD MSTORE PUSH32 0x686F696365000000000000000000000000000000000000000000000000000000 PUSH1 0x20 DUP3 ADD MSTORE POP JUMP JUMPDEST PUSH32 0x596F75722063686F69636520646F6573206E6F74206D61746368207468652063 PUSH1 0x0 DUP3 ADD MSTORE PUSH32 0x6F6D6D69746D656E740000000000000000000000000000000000000000000000 PUSH1 0x20 DUP3 ADD MSTORE POP JUMP JUMPDEST PUSH32 0x596F75206D75737420626574207468652073616D6520616D6F756E7420617320 PUSH1 0x0 DUP3 ADD MSTORE PUSH32 0x746865206F7468657220706C6179657200000000000000000000000000000000 PUSH1 0x20 DUP3 ADD MSTORE POP JUMP JUMPDEST PUSH32 0x4661696C656420746F2073656E64204574686572000000000000000000000000 PUSH1 0x0 DUP3 ADD MSTORE POP JUMP JUMPDEST PUSH32 0x596F75206861766520616C726561647920636F6D6D6974746564000000000000 PUSH1 0x0 DUP3 ADD MSTORE POP JUMP JUMPDEST PUSH32 0x5468652067616D6520697320616C72656164792066696E697368656400000000 PUSH1 0x0 DUP3 ADD MSTORE POP JUMP JUMPDEST PUSH32 0x4F6E6C7920746865206F776E65722063616E2061636365737320746869732061 PUSH1 0x0 DUP3 ADD MSTORE PUSH32 0x6374696F6E000000000000000000000000000000000000000000000000000000 PUSH1 0x20 DUP3 ADD MSTORE POP JUMP JUMPDEST PUSH32 0x47616D65206E6F74207374617274656400000000000000000000000000000000 PUSH1 0x0 DUP3 ADD MSTORE POP JUMP JUMPDEST PUSH32 0x506C6179657220646F6573206E6F742065786973740000000000000000000000 PUSH1 0x0 DUP3 ADD MSTORE POP JUMP JUMPDEST PUSH32 0x426F746820706C6179657273206D75737420636F6D6D69742066697273740000 PUSH1 0x0 DUP3 ADD MSTORE POP JUMP JUMPDEST PUSH32 0x4661696C656420746F20726566756E6420457468657200000000000000000000 PUSH1 0x0 DUP3 ADD MSTORE POP JUMP JUMPDEST POP JUMP JUMPDEST PUSH32 0x596F7520617265206E6F74206120706C6179657220696E20746869732067616D PUSH1 0x0 DUP3 ADD MSTORE PUSH32 0x6500000000000000000000000000000000000000000000000000000000000000 PUSH1 0x20 DUP3 ADD MSTORE POP JUMP JUMPDEST PUSH2 0x3613 DUP2 PUSH2 0x3125 JUMP JUMPDEST DUP2 EQ PUSH2 0x361E JUMPI PUSH1 0x0 DUP1 REVERT JUMPDEST POP JUMP JUMPDEST PUSH2 0x362A DUP2 PUSH2 0x3155 JUMP JUMPDEST DUP2 EQ PUSH2 0x3635 JUMPI PUSH1 0x0 DUP1 REVERT JUMPDEST POP JUMP JUMPDEST PUSH2 0x3641 DUP2 PUSH2 0x3189 JUMP JUMPDEST DUP2 EQ PUSH2 0x364C JUMPI PUSH1 0x0 DUP1 REVERT JUMPDEST POP JUMP JUMPDEST PUSH2 0x3658 DUP2 PUSH2 0x3193 JUMP JUMPDEST DUP2 EQ PUSH2 0x3663 JUMPI PUSH1 0x0 DUP1 REVERT JUMPDEST POP JUMP INVALID LOG2 PUSH5 0x6970667358 0x22 SLT KECCAK256 0x1F GASLIMIT 0xD3 0xB4 MULMOD 0xD6 PUSH13 0x873CB60EF04518FB6E602445EC CODECOPY DUP4 0xB6 0xE 0x25 CALLDATALOAD PUSH12 0xE8FD0415D164736F6C634300 ADDMOD SMOD STOP CALLER "
		},
		"gasEstimates": {
			"creation": {
				"codeDepositCost": "2796000",
				"executionCost": "infinite",
				"totalCost": "infinite"
			},
			"external": {
				"games(bytes32)": "infinite",
				"getGameDetails(bytes32)": "infinite",
				"getPlayerDetails(address)": "infinite",
				"owner()": "2511",
				"ownerWithdraw()": "infinite",
				"players(address)": "infinite",
				"requestRefund(bytes32)": "infinite",
				"sendCommitment(bytes32,bytes32,string)": "infinite",
				"sendVerification(bytes32,uint8,uint256,address,uint256,uint256)": "infinite"
			},
			"internal": {
				"_createGame(address payable,string calldata,uint256,bytes32)": "infinite",
				"_determineWinner(bytes32,address,uint256,uint256)": "infinite",
				"_registerPlayer(address payable)": "infinite"
			}
		},
		"methodIdentifiers": {
			"games(bytes32)": "f579f882",
			"getGameDetails(bytes32)": "8a1fa029",
			"getPlayerDetails(address)": "c8dd6ce7",
			"owner()": "8da5cb5b",
			"ownerWithdraw()": "4311de8f",
			"players(address)": "e2eb41ff",
			"requestRefund(bytes32)": "775274a1",
			"sendCommitment(bytes32,bytes32,string)": "b7cfcdca",
			"sendVerification(bytes32,uint8,uint256,address,uint256,uint256)": "2db439d7"
		}
	},
	"abi": [
		{
			"inputs": [],
			"stateMutability": "nonpayable",
			"type": "constructor"
		},
		{
			"anonymous": false,
			"inputs": [
				{
					"indexed": false,
					"internalType": "bytes32",
					"name": "gameId",
					"type": "bytes32"
				}
			],
			"name": "gameCancel",
			"type": "event"
		},
		{
			"anonymous": false,
			"inputs": [
				{
					"indexed": false,
					"internalType": "bytes32",
					"name": "gameId",
					"type": "bytes32"
				}
			],
			"name": "requestMoves",
			"type": "event"
		},
		{
			"anonymous": false,
			"inputs": [
				{
					"indexed": false,
					"internalType": "bytes32",
					"name": "gameId",
					"type": "bytes32"
				},
				{
					"indexed": false,
					"internalType": "address",
					"name": "winner",
					"type": "address"
				}
			],
			"name": "winner",
			"type": "event"
		},
		{
			"inputs": [
				{
					"internalType": "bytes32",
					"name": "",
					"type": "bytes32"
				}
			],
			"name": "games",
			"outputs": [
				{
					"internalType": "address payable",
					"name": "player1",
					"type": "address"
				},
				{
					"internalType": "address payable",
					"name": "player2",
					"type": "address"
				},
				{
					"internalType": "string",
					"name": "player1Name",
					"type": "string"
				},
				{
					"internalType": "string",
					"name": "player2Name",
					"type": "string"
				},
				{
					"internalType": "uint256",
					"name": "bet",
					"type": "uint256"
				},
				{
					"internalType": "bytes32",
					"name": "p1Commit",
					"type": "bytes32"
				},
				{
					"internalType": "bytes32",
					"name": "p2Commit",
					"type": "bytes32"
				},
				{
					"internalType": "uint8",
					"name": "p1Choice",
					"type": "uint8"
				},
				{
					"internalType": "uint8",
					"name": "p2Choice",
					"type": "uint8"
				},
				{
					"internalType": "address",
					"name": "winner",
					"type": "address"
				},
				{
					"internalType": "uint8",
					"name": "gameState",
					"type": "uint8"
				}
			],
			"stateMutability": "view",
			"type": "function"
		},
		{
			"inputs": [
				{
					"internalType": "bytes32",
					"name": "_id",
					"type": "bytes32"
				}
			],
			"name": "getGameDetails",
			"outputs": [
				{
					"components": [
						{
							"internalType": "address payable",
							"name": "player1",
							"type": "address"
						},
						{
							"internalType": "address payable",
							"name": "player2",
							"type": "address"
						},
						{
							"internalType": "string",
							"name": "player1Name",
							"type": "string"
						},
						{
							"internalType": "string",
							"name": "player2Name",
							"type": "string"
						},
						{
							"internalType": "uint256",
							"name": "bet",
							"type": "uint256"
						},
						{
							"internalType": "bytes32",
							"name": "p1Commit",
							"type": "bytes32"
						},
						{
							"internalType": "bytes32",
							"name": "p2Commit",
							"type": "bytes32"
						},
						{
							"internalType": "uint8",
							"name": "p1Choice",
							"type": "uint8"
						},
						{
							"internalType": "uint8",
							"name": "p2Choice",
							"type": "uint8"
						},
						{
							"internalType": "address",
							"name": "winner",
							"type": "address"
						},
						{
							"internalType": "uint8",
							"name": "gameState",
							"type": "uint8"
						}
					],
					"internalType": "struct RPS.Game",
					"name": "",
					"type": "tuple"
				}
			],
			"stateMutability": "view",
			"type": "function"
		},
		{
			"inputs": [
				{
					"internalType": "address",
					"name": "_player",
					"type": "address"
				}
			],
			"name": "getPlayerDetails",
			"outputs": [
				{
					"internalType": "uint256",
					"name": "",
					"type": "uint256"
				},
				{
					"internalType": "uint256",
					"name": "",
					"type": "uint256"
				},
				{
					"internalType": "int256",
					"name": "",
					"type": "int256"
				}
			],
			"stateMutability": "view",
			"type": "function"
		},
		{
			"inputs": [],
			"name": "owner",
			"outputs": [
				{
					"internalType": "address payable",
					"name": "",
					"type": "address"
				}
			],
			"stateMutability": "view",
			"type": "function"
		},
		{
			"inputs": [],
			"name": "ownerWithdraw",
			"outputs": [],
			"stateMutability": "nonpayable",
			"type": "function"
		},
		{
			"inputs": [
				{
					"internalType": "address",
					"name": "",
					"type": "address"
				}
			],
			"name": "players",
			"outputs": [
				{
					"internalType": "bool",
					"name": "initialized",
					"type": "bool"
				},
				{
					"internalType": "uint256",
					"name": "wins",
					"type": "uint256"
				},
				{
					"internalType": "uint256",
					"name": "losses",
					"type": "uint256"
				},
				{
					"internalType": "int256",
					"name": "winnings",
					"type": "int256"
				}
			],
			"stateMutability": "view",
			"type": "function"
		},
		{
			"inputs": [
				{
					"internalType": "bytes32",
					"name": "_id",
					"type": "bytes32"
				}
			],
			"name": "requestRefund",
			"outputs": [],
			"stateMutability": "nonpayable",
			"type": "function"
		},
		{
			"inputs": [
				{
					"internalType": "bytes32",
					"name": "_id",
					"type": "bytes32"
				},
				{
					"internalType": "bytes32",
					"name": "_commit",
					"type": "bytes32"
				},
				{
					"internalType": "string",
					"name": "_playerName",
					"type": "string"
				}
			],
			"name": "sendCommitment",
			"outputs": [],
			"stateMutability": "payable",
			"type": "function"
		},
		{
			"inputs": [
				{
					"internalType": "bytes32",
					"name": "_id",
					"type": "bytes32"
				},
				{
					"internalType": "uint8",
					"name": "_choice",
					"type": "uint8"
				},
				{
					"internalType": "uint256",
					"name": "_nonce",
					"type": "uint256"
				},
				{
					"internalType": "address",
					"name": "_feeAddr",
					"type": "address"
				},
				{
					"internalType": "uint256",
					"name": "winnerValue",
					"type": "uint256"
				},
				{
					"internalType": "uint256",
					"name": "feeValue",
					"type": "uint256"
				}
			],
			"name": "sendVerification",
			"outputs": [],
			"stateMutability": "nonpayable",
			"type": "function"
		},
		{
			"stateMutability": "payable",
			"type": "receive"
		}
	]
}